:1000000082EF01F00C506172746964612E2E2E0033
:100010000C0007004368617665313D2020206C6943
:10002000676164610A0D00004368617665313D6473
:1000300065736C69676164610A0D000043686176ED
:1000400065323D2020206C6967616461000043686F
:10005000617665323D6465736C6967616461000057
:10006000EA6A0D0EE96EEF500DE0020E016E006AB5
:10007000002EFED7012EFBD7970E006E002EFED766
:10008000EF2EF3D7120013B002D08C9801D08C88D9
:10009000959813B202D08C9A01D08C8A959A13B499
:1000A00002D08C9C01D08C8C959C13B602D08C9E77
:1000B00001D08C8E959E00008C80959000D000D051
:1000C0008C9095901200146A9588000E83B8010EEA
:1000D0001412958A000E83BA010E006ED890003675
:1000E00000501412958C000E83BC010E006E003679
:1000F0000036FC0E001600501412958E000E83BEC2
:10010000010E006E003600360036F80E0016005064
:10011000141214C001F012009588958A958C958E62
:100120008C84959400008C8095900000CCDF01C0F9
:1001300013F08C90959000008C80959000D0C3DFD8
:1001400001C012F08C9095909598959A959C959EEB
:100150001338006EF00E001600501210016EB7EF4B
:1001600000F09590959295948C929592D5D701C078
:1001700012F001BEFBD7105202E18C9201D08C82AA
:10018000959200008C94959400008C909590113875
:10019000126E0F0E121612C013F075DF11500F0BF6
:1001A000126E136E70DF1200280E096E0C0E0A6EAE
:1001B000010E0B6E060E0C6E8C9095908C929592A3
:1001C0008C9495949598959A959C959E95909592DA
:1001D00095940F0E0D6E44DF010E086E0850030853
:1001E00008E3030E136E4FDF050E0D6E39DF082A8C
:1001F000F5D7020E136E47DF050E0D6E31DF086A6C
:10020000085003080DE3036A0850090FE96E000E59
:100210000320EA6EEFCF11F0106AA3DF082AF0D7AF
:10022000046A056A91EF01F00D2C01D003D0400E55
:100230000E6E01D00E6A010E0C5C0E260E50800967
:100240000F6E106A116E8DDF010E0C5C046E010ED4
:100250000D5C056E12000A50070A09E00B0A0CE05B
:10026000010A14E0070A1BE0020A2CE030D0010E5C
:100270000C6E0D6ED9DF34D0106A010E116E71DF75
:10028000020E0D6EEDDE046A056A2AD0010E052409
:100290000B6E010E0C6E0BC00DF0C6DF21D00450AA
:1002A000042A130806E3010E106E200E116E59DFAA
:1002B000F6D7020E05240B6E010E0C6E0BC00DF06E
:1002C000B3DF0ED0106A100E116E4BDF09D0045050
:1002D000130806E3010E106E0AC011F042DF042A73
:1002E0007CEF01F00900F5520CE0F6CF08F0F7CFF3
:1002F00009F0F5CF0AF0AFD708C0F6FF09C0F7FF45
:10030000F1D71200F86AD09E700ED36E9B6AD3505C
:10031000076A066AC150C00B0F09C16E070EB46EA2
:1003200043D7040EF66E000EF76EDCDF040E086E87
:10033000FA0E0D6E95DE082EFBD7100EF66E000E2F
:10034000F76ED0DF120EF66E000EF76ECBDF9280E6
:1003500080A008D093908A80140EF66E000EF76E7F
:10036000C1DF07D093908A90280EF66E000EF76ECC
:10037000B9DF928280A208D093928A823C0EF66EF8
:10038000000EF76EAFDF07D093928A924E0EF66E94
:0A039000000EF76EA7DFD6D70300BA
:020000040030CA
:0E00000000C81E1E008781000FC00FE00F40D9
:00000001FF
;PIC18F4520
;CRC=5B9B  CREATED="08-dez-22 16:45"
