:040000004AEF02F0D1
:08000800046ED8CF05F0E0CF33
:1000100006F00001E9CF0CF0EACF07F0E1CF08F0DD
:10002000E2CF09F0D9CF0AF0DACF0BF0F3CF12F01C
:10003000F4CF13F0FACF14F0F5CF15F0F6CF16F099
:10004000F7CF17F000C00EF001C00FF002C010F0A3
:1000500003C011F0F2AA30EF00F0F2B45DEF00F04F
:100060009DA036EF00F09EB068EF00F00EC000F0EB
:100070000FC001F010C002F011C003F00CC0E9FF86
:1000800007C0EAFF078E08C0E1FF09C0E2FF0AC00F
:10009000D9FF0BC0DAFF12C0F3FF13C0F4FF14C086
:1000A000FAFF15C0F5FF16C0F6FF17C0F7FF0450A2
:1000B00006C0E0FF05C0D8FF1000010E1D26D8B015
:1000C0001E2AD8B41F2AD8B4202AF29436EF00F0A2
:1000D00021909E9036EF00F0204672657175656E36
:1000E00063696D6574726F200A00467265713A2506
:1000F0004C55487A202020202000EA6A290EE96E1B
:10010000EF5006E0520E006E002EFED7EF2EFAD70B
:10011000120038B002D08C9801D08C88959838B2F3
:1001200002D08C9A01D08C8A959A38B402D08C9CDB
:1001300001D08C8C959C38B602D08C9E01D08C8ED0
:10014000959E00008D8296928D9296921200396A49
:100150009588000E83B8010E3912958A000E83BA75
:10016000010E006ED890003600503912958C000EAA
:1001700083BC010E006E00360036FC0E00160050E7
:100180003912958E000E83BE010E006E00360036C9
:100190000036F80E00160050391239C001F0120076
:1001A0009588958A958C958E8D84969400008D8285
:1001B00096920000CCDF01C038F08D92969200003C
:1001C0008D829692C4DF01C037F08D9296929598F9
:1001D000959A959C959E3838006EF00E001600504A
:1001E0003710016EFAEF00F09692969096948D90EB
:1001F0009690D6D701C037F001BEFBD7355202E149
:100200008D9001D08D80969000008D949694000082
:100210008D9296923638376E0F0E371637C038F0FB
:1002200078DF36500F0B376E386E73DF1200280EF2
:10023000256E0C0E266E010E276E060E286E8D9210
:1002400096928D9096908D9496949598959A959C6B
:10025000959E9692969096940F0E296E4EDF010E03
:10026000246E2450030808E3030E386E52DF050E97
:10027000296E43DF242AF5D7020E386E4ADF050EB9
:10028000296E3BDF246A245003080DE3036A2450DF
:10029000250FE96E000E0320EA6EEFCF36F0356AC7
:1002A000A3DF242AF0D76EEF02F0322C01D003D066
:1002B000400E336E01D0336A010E315C3326335069
:1002C0008009346E356A366E8FDF12003050070AAF
:1002D00007E00B0A0AE0060A12E0020A16E01AD04A
:1002E000010E316E326EE1DF1AD0356A010E366EC4
:1002F0007BDFA60E006E002EFED7000010D0010E90
:10030000316E020E326ED1DF0AD0356A100E366EB3
:100310006BDF05D0010E356E30C036F065DF1200A0
:100320000900F5520CE0F6CF24F0F7CF25F0F5CF19
:1003300030F0CCDF24C0F6FF25C0F7FFF1D773EF14
:1003400002F00900F6CF25F0F7CF26F0F5CF30F018
:10035000BDDF25C0F6FF26C0F7FF242EF2D712001E
:10036000D8B203D0EA6A380EE96E006A016A026AFE
:10037000036A386A396A3A6A3B6A37503610351070
:1003800034102CE0200E3C6ED890303631363236A8
:100390003336383639363A363B3637503B5C08E12F
:1003A00036503A5C05E13550395C02E13450385C36
:1003B0000FE33450385E3550D8A0353C395E3650A6
:1003C000D8A0363C3A5E3750D8A0373C3B5ED88048
:1003D00000360136023603363C2ED6D738C0EFFF42
:1003E00039C0ECFF3AC0ECFF3BC0ECFF1200E95013
:1003F000286E3B0E2F6E9A0E2E6ECA0E2D6E2C6A34
:100400000A0E2A6ED882EA6A240EE96E27C033F0FB
:1004100026C032F025C031F024C030F02FC037F0B4
:100420002EC036F02DC035F02CC034F099DF0150CD
:1004300000520FE12A50010A0CE028500BE00F0B8C
:100440002A5C01E00CE228BE0AD028BC03D0200EB2
:1004500002D0286A300E002600C030F037DFD89274
:100460002FC033F02EC032F02DC031F02CC030F050
:10047000376A366A356A0A0E346E72DF03C02FF0AF
:1004800002C02EF001C02DF000C02CF02A2EBAD7E9
:10049000ABEF02F0F86AD09E078E400ED36E9B6AD7
:1004A000D3501C6A1B6A1A6A196A206A1F6A1E6A7C
:1004B0001D6A2190236A226AC150C00B0F09C16EC8
:1004C000070EB46E400ED36E9B6AD350A80ED56E45
:1004D000B50ECD6EF28AC00EF212A9D6D80EF66E07
:1004E000000EF76E1DD7D76AD66A0000206A1F6A11
:1004F0001E6A1D6A2180850ECF6EFB0ECE6E000037
:100500009D8021B0FED79D90D650246E006A016A6E
:1005100000502424196E0150D7201A6E000E1D20A1
:100520001B6E000E1E201C6E010E316E020E326E0E
:10053000BCDEEA0EF66E000EF76E050E246E01DFCD
:10054000410EE96E1CC027F01BC026F01AC025F032
:1005500019C024F04CD7F20EF66E000EF76E070E9F
:08056000246EEFDEC0D703009A
:020000040030CA
:0E00000000C81E1E008781000FC00FE00F40D9
:00000001FF
;PIC18F4520
;CRC=9032  CREATED="22-mai-23 13:49"
