:100000006BEF07F0506172746964612E2E2E200A26
:1000100000002047726175732063656C73697573A6
:1000200020256300200C59656E2025630A00536566
:100030007461202025630000200C526574616E6796
:10004000756C6F202025630A0000436172612020D7
:1000500025630000565F303D25312E336756202042
:10006000565F313D25362E3467562020565F323D8F
:1000700025312E3267560D0A00000C56303D2531D1
:100080002E3267562056313D25312E326756200AD2
:10009000000056323D25312E3167560041756C61A6
:1000A000206465204D6963726F636F6E74726F6C4C
:1000B000646F7265730D0000EA6A2C0EE96EEF50F2
:1000C00011E0020E016EBF0E006E0400002EFDD77F
:1000D000012EF9D7960E006E002EFED700D0040038
:1000E000EF2EEFD7120033B002D08C9801D08C885D
:1000F000959833B202D08C9A01D08C8A959A33B4F9
:1001000002D08C9C01D08C8C959C33B602D08C9EF6
:1001100001D08C8E959E00008C809590040000D0BC
:1001200000008C9095901200346A9588000E83B878
:10013000010E3412958A000E83BA010E006ED8901B
:10014000003600503412958C000E83BC010E006EF8
:1001500000360036FC0E001600503412958E000E4C
:1001600083BE010E006E003600360036F80E001613
:100170000050341234C001F012009588958A958C95
:10018000958E8C84959400008C8095900000CCDF37
:1001900001C033F08C90959000008C809590040005
:1001A0000000C2DF01C032F08C9095909598959A2E
:1001B000959C959E3338006EF00E0016005032105C
:1001C000016EE9EF00F09590959295948C9295923E
:1001D000D4D701C032F001BEFBD7305202E18C927D
:1001E00001D08C82959200008C94959400008C90A4
:1001F00095903138326E0F0E321632C033F073DF05
:1002000031500F0B326E336E6EDF1200280E1F6EF0
:100210000C0E206E010E216E060E226E8C909590B3
:100220008C9295928C9495949598959A959C959E80
:100230009590959295940F0E2C6E3EDF010E1E6EDA
:100240001E50030808E3030E336E4DDF050E2C6EBF
:1002500033DF1E2AF5D7020E336E45DF050E2C6EF6
:100260002BDF1E6A1E5003080DE3036A1E501F0F8A
:10027000E96E000E0320EA6EEFCF31F0306AA3DFA3
:100280001E2AF0D792EF07F02D2C01D003D0400E9C
:100290002E6E01D02E6A010E2C5C2E262E50800967
:1002A0002F6E306A316E8FDF12002B50070A07E085
:1002B0000B0A0AE0060A10E0020A14E018D0010E48
:1002C0002C6E2D6EE1DF18D0306A010E316E7BDFAF
:1002D000020E2C6EF1DE10D0010E2C6E020E2D6E71
:1002E000D3DF0AD0306A100E316E6DDF05D0010EFB
:1002F000306E2BC031F067DF12000900F5520CE0C0
:10030000F6CF1EF0F7CF1FF0F5CF2BF0CEDF1EC0DB
:10031000F6FF1FC0F7FFF1D798EF07F00900F6CFFF
:100320001FF0F7CF20F0F5CF2BF0BFDF1FC0F6FF97
:1003300020C0F7FF1E2EF2D712008E0E006E1FC0D7
:1003400001F01EC002F0036A015209E102C001F08F
:10035000026A080E005E015202E1006A08D0D890DD
:1003600001BE04D0023601360006F9D7019E120004
:100370002B50D8B471D0006E2F50D8B46DD0002659
:1003800004E3810E002668E204D07F0E005E64E381
:1003900063E02CC033F03050331A2C8E308E2E5048
:1003A0003202F4CF35F02D503102F4CF03F0F3CF09
:1003B00034F03202F3503526F4503422000E03227A
:1003C0002E503102F3503526F4503422000E026ACA
:1003D000032202222C503202F3503426F45003221E
:1003E000000E02222C503102F3500326F450022258
:1003F000000E016A01222E503002F3503426F450D0
:100400000322000E022201222D503002F350032657
:10041000F4500222000E01222C503002F35002262A
:10042000F4500122002A01BE05D0343603360236CC
:1004300001360006000E34AE0AD0032A0222012241
:10044000015005E1025003E1035001E1002A33BEEF
:10045000018E33AE019E04D0006A016A026A036A0B
:1004600012002250D8B4A5D02E6E2650D8B4A1D0F8
:100470002E5E05E37F0E2E26D8B09BD006D0810ECF
:100480002E5ED8A096D0D8B494D02EC000F0016AC9
:10049000026A036A2D6A23C02CF02C8E24C02BF034
:1004A00025C02AF0190E2E6E29502A5E0DE2010E8B
:1004B0002B5E0AE22C5E08E22D5E06E22D2A2C2A33
:1004C0002B2A29502A2628D028502B5E12E2010E12
:1004D0002C5E0FE22D5E0DE22D2A2C2A28502B26B1
:1004E00029502A2619E32B2A17E12C2A15E12D2A57
:1004F00013D0275080092C5E0EE2010E2D5E0BE218
:100500002D2A275080092C2628502B26E9E32C2A57
:10051000E7E12D2AE5D703802E2E01D00BD0D8900D
:100520002A362B362C362D36D89003360236013635
:100530002F36BAD72FA006D0D8900132023203321C
:100540002F3202D0000635E02FBE1ED0D8902A36BA
:100550002B362C362D3629502A5E07E2010E2B5EF3
:1005600004E22C5E02E22D5E1AE328502B5E05E2C7
:10057000010E2C5E02E22D5E12E3275080092C5EF4
:1005800003E2010E2D5E0BE3032A09E1022A07E1D3
:10059000012A05E1002A0DE001320232033223C0B4
:1005A0002EF027502E1A2EAE02D0018E06D0019EBC
:1005B00004D0006A016A026A036A1200800ED8B28F
:1005C000301A356A366A2CC034F03050341A2B5049
:1005D000D8B4DCD0336E006E2F50D8B4E0D0335E88
:1005E000D8B481D03DE330C039F0398E31C038F015
:1005F00032C037F0366AD890393238323732363234
:10060000332EF8D734AE03D03580DDD0359033901B
:100610003588EA6A2E0EE96EE9D0359834BE0AD0E4
:1006200033A013D03932383237323632002AD8B4B8
:10063000C5D00BD039BE0CD0D890363637363836C8
:1006400039360006D8B4BAD0F5D7358C6BD0359C86
:100650002CC034F02CAE02D0398EA9D0399EA7D050
:100660002FC033F02FC000F02B50335E2CC039F078
:10067000398E2DC038F02EC037F0366AD890393216
:10068000383237323632332EF8D734AE03D0358293
:100690009AD035923390358AEA6A320EE96EA6D046
:1006A000359A34BE0AD033A013D0393238323732BB
:1006B0003632002AD8B482D00BD039BE0CD0D890B4
:1006C00036363736383639360006D8B477D0F5D7CF
:1006D000358E28D0359E30C034F030AE02D0398E01
:1006E00066D0399E64D030C039F0398E31C038F0D0
:1006F00032C037F034AE04D0399E358464D035949E
:10070000366A3390EA6A2E0EE96E70D034BE1CD081
:100710002CC034F033A006D039323832373236327A
:10072000002A4CE036AE0BD0372A09E1382A07E11F
:10073000392A05E1393238323732002A3FE035BCF8
:1007400086D735BEC7D71CD0800E391A39AE04D033
:100750003AD030C034F00AD02CC034F0395206E11F
:10076000385204E1375202E1006A21D039BE08D084
:10077000D8903636373638363936002EF7D71ED071
:1007800034AE02D0398E13D0399E11D02FC000F074
:1007900030C039F031C038F032C037F008D02BC04B
:1007A00000F02CC039F02DC038F02EC037F039C021
:1007B00001F038C002F037C003F034D0006A016A9B
:1007C000026A036A2FD0366A371E381E391E361E5B
:1007D000362A05E1372A03E1382A01E1392A35B002
:1007E00015D735B256D735B48AD7B3D7EF50372699
:1007F00005E3382A03E1392AD8B43380ED52EF50AB
:10080000382603E3392AD8B43380ED52EF50EFBED7
:1008100001D0800A3926D8B0338035B8FED635BA33
:100820003FD774D712002B50B6082B6E036A2CC02A
:100830002FF02C8ED8902C322D322E3203320232F1
:10084000013200322B2EF6D72FAE0BD0001E011E28
:10085000021E031E002AD8B4012AD8B4022AD8B432
:10086000032A1200D8B203D0EA6A330EE96E006A96
:10087000016A026A036A336A346A356A366A325038
:10088000311030102F102CE0200E376ED8902B3600
:100890002C362D362E363336343635363636325003
:1008A000365C08E13150355C05E13050345C02E1E2
:1008B0002F50335C0FE32F50335E3050D8A0303CC4
:1008C000345E3150D8A0313C355E3250D8A0323C35
:1008D000365ED8800036013602360336372ED6D73C
:1008E00033C0EFFF34C0ECFF35C0ECFF36C0ECFF87
:1008F0001200E950236E2250256E19E021C02EF01F
:1009000020C02DF01FC02CF01EC02BF0326A316ABF
:10091000200E306E820E2F6E2BDD03C021F002C040
:1009200020F001C01FF000C01EF0252EE7D77E0E7C
:10093000006E016A1FBE018ED89221C02EF020C029
:100940002DF01FC02CF01EC02BF0326A316A01C09E
:1009500030F02F6E33DE03C021F002C020F001C062
:100960001FF000C01EF021C02EF020C02DF01FC0CF
:100970002CF01EC02BF057DF03C021F002C020F086
:1009800001C01FF000C01EF021AE0DD02306238A47
:100990001E1E1F1E201E211E1E2AD8B41F2AD8B4B8
:1009A000202AD8B4212A3B0E2A6E9A0E296ECA0E2E
:1009B000286E276A0A0E256E2250D8B4232AD882C0
:1009C000EA6A1E0EE96E21C02EF020C02DF01FC075
:1009D0002CF01EC02BF02AC032F029C031F028C004
:1009E00030F027C02FF03EDF015000520FE12228E7
:1009F000255C0CE023500CE00F0B255C01E03BE292
:100A000023BE39D023BC04D0200E30D0200E2316B4
:100A100023AA0DD0239A2250D8A423060050236E77
:100A20002D0E9EA8FED7AD6E2350006E236A225075
:100A3000255C0BE10050236E2E0E9EA8FED7AD6EF6
:100A40002350006E200E2316000E300E23AA0ED067
:100A5000239A2250D8A423060050236E2D0E9EA860
:100A6000FED7AD6E2350006E236A300E0026005074
:100A70009EA8FED7AD6ED8922AC02EF029C02DF0C8
:100A800028C02CF027C02BF0326A316A306A0A0E77
:100A90002F6EE8DE03C02AF002C029F001C028F062
:100AA00000C027F0252E8BD7120094988B98080E43
:100AB000016E00D00000018E0ED0019E2B32D8B006
:100AC0008B88D8A08B98018C06D0019C012EF6D77C
:100AD00000D000008B883F0EE96EE92EFED70000A3
:100AE00001BEEBD701BCF1D712000900F6CF1FF011
:100AF000F7CF20F0F5CF2BF0D8DF1FC0F6FF20C0D6
:100B0000F7FF1E2EF2D71200E950236E2250256EF9
:100B100019E021C02EF020C02DF01FC02CF01EC007
:100B20002BF0326A316A200E306E820E2F6E20DC7E
:100B300003C021F002C020F001C01FF000C01EF071
:100B4000252EE7D77E0E006E016A1FBE018ED89259
:100B500021C02EF020C02DF01FC02CF01EC02BF0A5
:100B6000326A316A01C030F02F6E28DD03C021F0F7
:100B700002C020F001C01FF000C01EF021C02EF006
:100B800020C02DF01FC02CF01EC02BF04CDE03C087
:100B900021F002C020F001C01FF000C01EF021AE05
:100BA0000DD02306238A1E1E1F1E201E211E1E2A54
:100BB000D8B41F2AD8B4202AD8B4212A3B0E2A6ED2
:100BC0009A0E296ECA0E286E276A0A0E256E2250CA
:100BD000D8B4232AD882EA6A1E0EE96E21C02EF00C
:100BE00020C02DF01FC02CF01EC02BF02AC032F008
:100BF00029C031F028C030F027C02FF033DE01507B
:100C000000520FE12228255C0CE023500CE00F0B72
:100C1000255C01E037E223BE35D023BC04D0200E92
:100C20002DD0200E231623AA0CD0239A2250D8A40C
:100C300023060050236E2D0E2B6E37DF2350006EDF
:100C4000236A2250255C0AE10050236E2E0E2B6E83
:100C50002CDF2350006E200E2316000E300E23AA28
:100C60000DD0239A2250D8A423060050236E2D0EB7
:100C70002B6E1BDF2350006E236A300E002600C04F
:100C80002BF013DFD8922AC02EF029C02DF028C0F7
:100C90002CF027C02BF0326A316A306A0A0E2F6EB0
:100CA000E1DD03C02AF002C029F001C028F000C035
:100CB00027F0252E8FD71200E950236E2250256E83
:100CC0001AE021C02EF020C02DF01FC02CF01EC055
:100CD0002BF0326A316A200E306E820E2F6EB8EC25
:100CE00001F003C021F002C020F001C01FF000C0DD
:100CF0001EF0252EE6D77E0E006E016A1FBE018E05
:100D0000D89221C02EF020C02DF01FC02CF01EC0A4
:100D10002BF0326A316A01C030F02F6E4FDC03C015
:100D200021F002C020F001C01FF000C01EF021C061
:100D30002EF020C02DF01FC02CF01EC02BF073DD54
:100D400003C021F002C020F001C01FF000C01EF05F
:100D500021AE0DD02306238A1E1E1F1E201E211E1B
:100D60001E2AD8B41F2AD8B4202AD8B4212A3B0E70
:100D70002A6E9A0E296ECA0E286E276A0A0E256EF2
:100D80002250D8B4232AD882EA6A1E0EE96E21C006
:100D90002EF020C02DF01FC02CF01EC02BF02AC05A
:100DA00032F029C031F028C030F027C02FF05ADDD2
:100DB000015000520FE12228255C0CE023500CE08A
:100DC0000F0B255C01E03BE223BE39D023BC04D0ED
:100DD000200E30D0200E231623AA0DD0239A2250A5
:100DE000D8A423060050236E2D0E2B6E55EC01F077
:100DF0002350006E236A2250255C0BE10050236EC5
:100E00002E0E2B6E55EC01F02350006E200E231693
:100E1000000E300E23AA0ED0239A2250D8A4230607
:100E20000050236E2D0E2B6E55EC01F02350006EFA
:100E3000236A300E002600C02BF055EC01F0D8924A
:100E40002AC02EF029C02DF028C02CF027C02BF08E
:100E5000326A316A306A0A0E2F6E04DD03C02AF04E
:100E600002C029F001C028F000C027F0252E8BD742
:100E7000120094948B94080E016E00D00000018E35
:100E80000ED0019E2032D8B08B84D8A08B94018CD8
:100E900006D0019C012EF6D700D000008B843F0EB7
:100EA000E96EE92EFED7000001BEEBD701BCF1D7F9
:100EB00064EF07F00900F5520CE0F6CF1EF0F7CF13
:100EC0001FF0F5CF20F0D5D71EC0F6FF1FC0F7FFEB
:100ED000F1D7B8EF09F0F86AD09E700ED36E9B6A16
:100EE000D350B8960C0EAF6EA20EAC6E900EAB6ED9
:100EF0000000000094988B8894948B841D6A1C6A6F
:100F0000C150C00B0F09C16E070EB46EC150C00BAB
:100F10000C09C16EC050C00B3F09C06EC08EC280AC
:100F200006EF01F0040EF66E000EF76E7DEF01F095
:100F3000120EF66E000EF76E0F0E1E6E8EEC01F0A6
:100F4000DF0E2B6E55EC01F0040E1E6EFA0E2C6EA9
:100F50005CEC00F01E2EFAD7240EF66E000EF76E33
:100F6000060E1E6E8EEC01F05C0E2B6E55EC01F041
:100F70000A0E2B6E55EC01F02E0EF66E000EF76E7B
:100F8000060E1E6E8EEC01F07E0E2B6E55EC01F0FF
:100F9000040E1E6EFA0E2C6E5CEC00F01E2EFAD7BC
:100FA000380EF66E000EF76E0D0E1E6E8EEC01F012
:100FB0002B6855EC01F00A0E2B6E55EC01F04A0E31
:100FC000F66E000EF76E060E1E6E8EEC01F0FC0E35
:100FD0002B6E55EC01F0040E1E6EFA0E2C6E5CECBE
:100FE00000F01E2EFAD7000E016EC250C30B011086
:100FF000C26E0400060E006E002EFED7C282C2B280
:10100000FED7C4CF02F0C3CF01F0C4CF03F0C3CFEB
:101010001EF0C4CF1FF09DEC01F003C007F002C02A
:1010200006F001C005F000C004F0040E016EC250CD
:10103000C30B0110C26E0400060E006E002EFED718
:10104000C282C2B2FED7C4CF02F0C3CF01F0C4CF78
:1010500003F0C3CF1EF0C4CF1FF09DEC01F003C01E
:101060000BF002C00AF001C009F000C008F0080E41
:10107000016EC250C30B0110C26E0400060E006E5A
:10108000002EFED7C282C2B2FED7C4CF02F0C3CFB9
:1010900001F0C4CF03F0C3CF1EF0C4CF1FF09DEC0E
:1010A00001F003C00FF002C00EF001C00DF000C04F
:1010B0000CF007C02EF006C02DF005C02CF004C0C7
:1010C0002BF0326A316A200E306E810E2F6EB8EC32
:1010D00001F003C021F002C020F001C01FF000C0E9
:1010E0001EF003C025F002C024F001C023F000C0B0
:1010F00022F0296A286A276A890E266E31EC02F0EE
:1011000003C013F002C012F001C011F000C010F0D3
:101110000BC02EF00AC02DF009C02CF008C02BF037
:10112000326A316A200E306E810E2F6EB8EC01F0FB
:1011300003C021F002C020F001C01FF000C01EF06B
:1011400003C025F002C024F001C023F000C022F04B
:10115000296A286A276A890E266E31EC02F003C0DC
:1011600017F002C016F001C015F000C014F00FC057
:101170002EF00EC02DF00DC02CF00CC02BF0326AFA
:10118000316A200E306E810E2F6EB8EC01F003C074
:1011900021F002C020F001C01FF000C01EF003C00B
:1011A00025F002C024F001C023F000C022F0296A1B
:1011B000286A276A890E266E31EC02F003C01BF004
:1011C00002C01AF001C019F000C018F0030EE96E59
:1011D00007C021F006C020F005C01FF004C01EF0BB
:1011E000226A79EC04F0200E9EA8FED7AD6E200E88
:1011F0009EA8FED7AD6E030EE96E0BC021F00AC0AB
:1012000020F009C01FF008C01EF0226A79EC04F03B
:10121000200E9EA8FED7AD6E200E9EA8FED7AD6E06
:10122000030EE96E0FC021F00EC020F00DC01FF0BC
:101230000CC01EF0226A79EC04F00D0E9EA8FED7B9
:10124000AD6E0A0E9EA8FED7AD6E540EF66E000E61
:10125000F76E040E1E6E49DC890EE96E13C021F094
:1012600012C020F011C01FF010C01EF0030E226E3D
:101270004BDC5D0EF66E000EF76E070E1E6E35DC53
:10128000050EE96E17C021F016C020F015C01FF042
:1012900014C01EF0040E226E37DC690EF66E000ECE
:1012A000F76E070E1E6E21DC890EE96E1BC021F061
:1012B0001AC020F019C01FF018C01EF0020E226ED6
:1012C00023DC750EF66E000EF76E030E1E6E0DDC3F
:1012D0007A0EF66E000EF76E040E1E6E8EEC01F0A6
:1012E000890EE96E13C021F012C020F011C01FF06A
:1012F00010C01EF0020E226EDFDC830EF66E000EB2
:10130000F76E050E1E6E8EEC01F0890EE96E17C0A9
:1013100021F016C020F015C01FF014C01EF0020E00
:10132000226ECADC8D0EF66E000EF76E030E1E6E78
:101330008EEC01F0920EF66E000EF76E030E1E6E2E
:101340008EEC01F0890EE96E1BC021F01AC020F06E
:1013500019C01FF018C01EF0010E226EADDC560E33
:101360002B6E55EC01F09C0EF66E000EF76EA2D5BA
:10137000040E1E6EFA0E2C6E5CEC00F01E2EFAD7D8
:0413800032D603005E
:020000040030CA
:0E00000000C81E1E008781000FC00FE00F40D9
:00000001FF
;PIC18F4520
;CRC=301E  CREATED="01-dez-22 15:29"
