:04000000F6EF02F025
:08000800046ED8CF05F0E0CF33
:1000100006F00001E9CF0CF0EACF07F0E1CF08F0DD
:10002000E2CF09F0D9CF0AF0DACF0BF0F3CF12F01C
:10003000F4CF13F0FACF14F0F5CF15F0F6CF16F099
:10004000F7CF17F000C00EF001C00FF002C010F0A3
:1000500003C011F0F2A830EF00F0F2B2C8EF01F0E7
:10006000F0A636EF00F0F0B033EF02F00EC000F073
:100070000FC001F010C002F011C003F00CC0E9FF86
:1000800007C0EAFF078E08C0E1FF09C0E2FF0AC00F
:10009000D9FF0BC0DAFF12C0F3FF13C0F4FF14C086
:1000A000FAFF15C0F5FF16C0F6FF17C0F7FF0450A2
:1000B00006C0E0FF05C0D8FF1000EA6A300EE96E06
:1000C000EF500DE0020E016E006A002EFED7012EE9
:1000D000FBD7970E006E002EFED7EF2EF3D712003F
:1000E000090E2E5E0BE3EA6A2E0EE96ED890EF320F
:1000F000EF5004E001D00000EF2EFDD712002C6A73
:100100002C50130813E3939E8A8E010E306ED5DFB8
:10011000020E2D6EF80E2E6EE3DF2D2EFBD7939E72
:100120008A9E1E0E306EC9DF2C2AEAD7CAEF01F074
:10013000386A9588000E83B8010E3812958A000E31
:1001400083BA010E006ED890003600503812958C9C
:10015000000E83BC010E006E00360036FC0E001649
:1001600000503812958E000E83BE010E006E0036D0
:1001700000360036F80E00160050381238C001F074
:1001800012009588958A958C958E8D8496940000A2
:100190008D8296920000CCDF01C037F08D9296924E
:1001A00000008D82969200D0C3DF01C036F08D92A0
:1001B00096929598959A959C959E3738006EF00E7C
:1001C000001600503610016E120037B002D08C9825
:1001D00001D08C88959837B202D08C9A01D08C8A45
:1001E000959A37B402D08C9C01D08C8C959C37B6F4
:1001F00002D08C9E01D08C8E959E00008D829692AE
:1002000000D000D08D92969212009692969096947D
:100210008D909690B6DF01C036F001BEFBD7345208
:1002200002E18D9001D08D80969000008D9496947F
:1002300000008D9296923538366E0F0E361636C007
:1002400037F0C3DF35500F0B366E376EBEDF12004E
:10025000312C01D003D0400E326E01D0326A010E33
:10026000305C322632508009336E346A356ECDDF11
:1002700012002F50070A07E00B0A0AE0060A10E0F6
:10028000020A14E018D0010E306E316EE1DF18D092
:10029000346A010E356EB9DF020E306E0EDF10D0FB
:1002A000010E306E020E316ED3DF0AD0346A100EAA
:1002B000356EABDF05D0010E346E2FC035F0A5DFF3
:1002C00012000900F6CF2DF0F7CF2EF0F5CF2FF06A
:1002D000D0DF2DC0F6FF2EC0F7FF2C2EF2D7120074
:1002E0002F50016A2E5C03E22EC000F00CD0006A91
:1002F000080E306E2E3600362F50005CD8B0006EDF
:100300000136302EF7D7120001502CC02EF0640EAB
:100310002F6EE6DF00C02CF00150300E07E12DA259
:100320000CD02DB60AD02DB8200E03D02D962D98C6
:100330002D80012601C02FF09CDF2CC02EF00A0E6C
:100340002F6ECEDF00C02CF00150300E06E12DB62E
:1003500008D02DA006D02DB8200E012601C02FF008
:1003600088DF300E2C262CC02FF083DF12002C6A81
:100370002C5013080CE3939E8A8E020E306E9DDE85
:10038000939E8A9E1E0E306E98DE2C2AF1D71200A4
:100390001BA0B5D6938881A8FDD71A06F250006E2F
:1003A000F29EAA6AA96A1AC0A8FFA69CA69EA68465
:1003B0000F01550EA76EAA0EA76EA682A6B2FED793
:1003C000A6940050F212010E306E020E316E000142
:1003D0003FDF060EF66E040EF76E060E2C6E71DF12
:1003E0001AC02CF01B0E2D6E8FDF0E0EF66E040E53
:1003F000F76E030E2C6E65DF1A5201E11B80B7DF2A
:10040000F29236EF00F056414741533D25752020CA
:1004100020002C6A2C50130813E3939C8A8C010E45
:10042000306E4BDE020E2D6EF80E2E6E59DE2D2E26
:10043000FBD7939C8A9C1E0E306E3FDE2C2AEAD797
:1004400034EF02F02C6A2C5013080CE3939C8A8C36
:10045000020E306E32DE939C8A9C1E0E306E2DDEB4
:100460002C2AF1D71200D5D7938A81AAFDD7EADFCB
:100470001A2AF250006EF29EAA6AA96A1AC0A8FF50
:10048000A69CA69EA6840F01550EA76EAA0EA76E67
:10049000A682A6B2FED7A6940050F212010E306ECC
:1004A000020E316E0001D4DED40EF66E040EF76E2D
:1004B000060E2C6E06DF1AC02CF01B0E2D6E24DFEC
:1004C000DC0EF66E040EF76E030E2C6EFADEF09064
:1004D00036EF00F056414741533D2575202020005E
:1004E0000C4573746163696F6E616D656E746F0046
:1004F00056414741533D25750000280E1F6E0C0ED6
:10050000206E010E216E060E226E8D9296928D90B7
:1005100096908D9496949598959A959C959E969282
:1005200096909694196AF2BE198EF29E0F0E306E56
:10053000C4DD19BEF28E010E1E6E1E50030814E3B8
:10054000196AF2BE198EF29E030E376E3EDE19BE98
:10055000F28E196AF2BE198EF29E050E306EADDD76
:1005600019BEF28E1E2AE9D7196AF2BE198EF29EC2
:10057000020E376E2ADE19BEF28E196AF2BE198E8D
:10058000F29E050E306E99DD19BEF28E1E6A1E5067
:10059000030813E3036A1E501F0FE96E000E0320C9
:1005A000EA6E196AF2BE198EF29EEFCF35F0346A08
:1005B0002CDE19BEF28E1E2AEAD733EF03F00900B3
:1005C000F55212E0F6CF1EF0F7CF1FF0196AF2BE17
:1005D000198EF29EF5CF2FF04CDE19BEF28E1EC0A2
:1005E000F6FF1FC0F7FFEBD738EF03F0F86AD09E95
:1005F000078E600ED36E9B9C9B9E0A0E1A6E1D6A20
:100600001C6A0F01386B396B3A6B3B6B3C6B776A3A
:10061000786A796AF288F086C00EF212938681B603
:1006200014D0F2CF00F0F29EAA6AA96A050EA86E55
:10063000A69CA69EA684550EA76EAA0EA76EA6829D
:10064000A6B2FED7A6940050F212F2CF1EF0F29E90
:10065000AA6AA96AA69CA69EA680A8501EBEF28E73
:100660001A6E00014AD7E00EF66E040EF76EA7D799
:10067000196AF2BE198EF29E010E306E020E316EB4
:10068000E7DD19BEF28EF00EF66E040EF76E196AF3
:10069000F2BE198EF29E060E2C6E13DE19BEF28E7D
:1006A000196AF2BE198EF29E1AC02CF01B0E2D6E26
:1006B0002BDE19BEF28E196AF2BE198EF29E57DE3B
:1006C00019BEF28E196AF2BE198EF29EBBDE19BEF9
:1006D000F28E196AF2BE198EF29E0A0E306EEDDCB1
:0806E00019BEF28EF6D70300EB
:0200000400F00A
:05000000080A141E288F
:020000040030CA
:0E00000000E81E3C00BF81000FC00FE00F4063
:00000001FF
;PIC18F46K22
;CRC=8032  CREATED="04-jun-23 22:08"
