:100000001BEF00F0EA6A060EE96EEF50D8B41AEF63
:1000100000F0020E016EBF0E006E0400002EFDD730
:10002000012EF9D7960E006E002EFED700D00400E8
:10003000EF2EEFD71200F86AD09E700ED36E9B6A37
:10004000D350C150C00B0F09C16E070EB46EC15022
:10005000C00B0F09C16E93908A90040E056EFA0EC4
:10006000066ED0DF052EFBD793908A80040E056EB6
:0E007000FA0E066EC7DF052EFBD7EDD7030094
:020000040030CA
:0E00000000C81E1E008781000FC00FE00F40D9
:00000001FF
;PIC18F4520
;CRC=72E2  CREATED="17-dez-21 18:57"
