:0400000034EF09F0E0
:08000800046ED8CF05F0E0CF33
:1000100006F00001E9CF0CF0EACF07F0E1CF08F0DD
:10002000E2CF09F0D9CF0AF0DACF0BF0F3CF12F01C
:10003000F4CF13F0FACF14F0F5CF15F0F6CF16F099
:10004000F7CF17F000C00EF001C00FF002C010F0A3
:1000500003C011F09DA030EF00F09EB008EF05F056
:100060000EC000F00FC001F010C002F011C003F08C
:100070000CC0E9FF07C0EAFF078E08C0E1FF09C016
:10008000E2FF0AC0D9FF0BC0DAFF12C0F3FF13C0B2
:10009000F4FF14C0FAFF15C0F5FF16C0F6FF17C035
:1000A000F7FF045006C0E0FF05C0D8FF10008E0E19
:1000B000006E90C001F08FC002F0036A015209E1A6
:1000C00002C001F0026A080E005E015202E1006AFD
:1000D00008D0D89001BE04D0023601360006F9D708
:1000E000019E12009C51D8B471D0006EA051D8B4BA
:1000F0006DD0002604E3810E002668E204D07F0E56
:10010000005E64E363E09DC0A4F0A151A41B9D8F39
:10011000A18F9F51A303F4CFA6F09E51A203F4CF69
:1001200003F0F3CFA5F0A303F350A627F450A523C3
:10013000000E03229F51A203F350A627F450A523DB
:10014000000E026A032202229D51A303F350A52749
:10015000F4500322000E02229D51A203F350032605
:10016000F4500222000E016A01229F51A103F350B4
:10017000A527F4500322000E022201229E51A10362
:10018000F3500326F4500222000E01229D51A103D8
:10019000F3500226F4500122002A01BE05D0A537F3
:1001A0000336023601360006000EA5AF0AD0032A38
:1001B00002220122015005E1025003E1035001E156
:1001C000002AA4BF018EA4AF019E04D0006A016A78
:1001D000026A036A12009351D8B4A5D09F6F975159
:1001E000D8B4A1D09F5F05E37F0E9F27D8B09BD0E6
:1001F00006D0810E9F5FD8A096D0D8B494D09FC06F
:1002000000F0016A026A036A9E6B94C09DF09D8FA4
:1002100095C09CF096C09BF0190E9F6F9A519B5F02
:100220000DE2010E9C5F0AE29D5F08E29E5F06E21E
:100230009E2B9D2B9C2B9A519B2728D099519C5FDC
:1002400012E2010E9D5F0FE29E5F0DE29E2B9D2B41
:1002500099519C279A519B2719E39C2B17E19D2BC1
:1002600015E19E2B13D0985180099D5F0EE2010E7F
:100270009E5F0BE29E2B985180099D2799519C27E8
:10028000E9E39D2BE7E19E2BE5D703809F2F01D06B
:100290000BD0D8909B379C379D379E37D89003362C
:1002A00002360136A037BAD7A0A106D0D8900132C5
:1002B00002320332A03302D0000635E0A0BF1ED0C8
:1002C000D8909B379C379D379E379A519B5F07E2AA
:1002D000010E9C5F04E29D5F02E29E5F1AE399516A
:1002E0009C5F05E2010E9D5F02E29E5F12E3985162
:1002F00080099D5F03E2010E9E5F0BE3032A09E183
:10030000022A07E1012A05E1002A0DE0013202324A
:10031000033294C09FF098519F1B9FAF02D0018E73
:1003200006D0019E04D0006A016A026A036A1200C4
:10033000A56B9588000E83B8010EA513958A000E53
:1003400083BA010E006ED89000360050A513958C2C
:10035000000E83BC010E006E00360036FC0E001647
:100360000050A513958E000E83BE010E006E003660
:1003700000360036F80E00160050A513A5C001F097
:1003800012009588958A958C958E8D8496940000A0
:100390008D8296920000CCDF01C0A4F08D929692DF
:1003A00000008D82969200D0C3DF01C0A3F08D9231
:1003B00096929598959A959C959EA439006EF00E0C
:1003C00000160050A311016E1200A4B102D08C9847
:1003D00001D08C889598A4B302D08C9A01D08C8AD5
:1003E000959AA4B502D08C9C01D08C8C959CA4B716
:1003F00002D08C9E01D08C8E959E00008D829692AC
:1004000000D000D08D92969212009692969096947B
:100410008D909690B6DF01C0A3F001BEFBD7A1532B
:1004200002E18D9001D08D80969000008D9496947D
:1004300000008D929692A239A36F0F0EA317A3C04E
:10044000A4F0C3DFA2510F0BA36FA46FBEDF120095
:100450009E2D01D003D0400E9F6F01D09F6B010EE7
:100460009D5D9F279F518009A06FA16BA26FCDDF7B
:1004700012009C51B6089C6F036A9DC0A0F09D8F2E
:10048000D8909D339E339F330332023201320032C3
:100490009C2FF6D7A0AF0BD0001E011E021E031E1C
:1004A000002AD8B4012AD8B4022AD8B4032A02EF09
:1004B00003F0D8B203D0EA6AA40EE96E006A016ABA
:1004C000026A036AA46BA56BA66BA76BA351A2116A
:1004D000A111A0112CE0200EA86FD8909C379D3759
:1004E0009E379F37A437A537A637A737A351A75DF7
:1004F00008E1A251A65D05E1A151A55D02E1A0516F
:10050000A45D0FE3A051A45FA151D8A0A13DA55FB8
:10051000A251D8A0A23DA65FA351D8A0A33DA75F3A
:10052000D8800036013602360336A82FD6D7A4C0AD
:10053000EFFFA5C0ECFFA6C0ECFFA7C0ECFF1200C8
:10054000EA6A9D0EE96EEF500DE0020E016E006A40
:10055000002EFED7012EFBD7970E006E002EFED781
:10056000EF2EF3D712009C51070A07E00B0A0AE0AE
:10057000060A10E0020A14E018D0010E9D6F9E6F6B
:1005800067DF18D0A16B010EA26F3FDF020E9D6FD7
:10059000D7DF10D0010E9D6F020E9E6F59DF0AD07B
:1005A000A16B100EA26F31DF05D0010EA16F9CC0B0
:1005B000A2F02BDF1200E950946F9351966F19E06F
:1005C00092C09FF091C09EF090C09DF08FC09CF0B3
:1005D000A36BA26B200EA16F820EA06F83DD03C000
:1005E00092F002C091F001C090F000C08FF0962F01
:1005F000E7D792C09FF091C09EF090C09DF08FC051
:100600009CF037D703C092F002C091F001C090F087
:1006100000C08FF092AF0DD09407948B8F1F901F66
:10062000911F921F8F2BD8B4902BD8B4912BD8B494
:10063000922B3B0E9B6F9A0E9A6FCA0E996F986B16
:100640000A0E966F9351D8B4942BD882EA6A8F0E13
:10065000E96E92C09FF091C09EF090C09DF08FC057
:100660009CF09BC0A3F09AC0A2F099C0A1F098C0E2
:10067000A0F01FDF015000520FE19329965D0CE0BE
:1006800094510CE00F0B965D01E037E294BF35D03A
:1006900094BD04D0200E2DD0200E941794AB0CD016
:1006A000949B9351D8A494070050946F2D0E9C6F87
:1006B0005ADF9451006E946B9351965D0AE100509D
:1006C000946F2E0E9C6F4FDF9451006E200E941786
:1006D000000E300E94AB0DD0949B9351D8A4940788
:1006E0000050946F2D0E9C6F3EDF9451006E946B02
:1006F000300E002600C09CF036DFD8929BC09FF0E1
:100700009AC09EF099C09DF098C09CF0A36BA26B1C
:10071000A16B0A0EA06FCDDE03C09BF002C09AF061
:1007200001C099F000C098F0962F8FD765EF05F0C3
:100730000900F6CF90F0F7CF91F0F5CF9CF013DFE2
:1007400090C0F6FF91C0F7FF8F2FF2D76CEF05F046
:10075000800ED8B2941B996B9A6B90C098F094510C
:10076000981B8F51D8B4DCD0976F006E9351D8B4DA
:10077000E0D0975FD8B481D03DE394C09DF09D8FC9
:1007800095C09CF096C09BF09A6BD8909D339C339B
:100790009B339A33972FF8D798AF03D09981DDD048
:1007A000999197919989EA6A920EE96EE9D099999F
:1007B00098BF0AD097A113D09D339C339B339A33B3
:1007C000002AD8B4C5D00BD09DBF0CD0D8909A3792
:1007D0009B379C379D370006D8B4BAD0F5D7998D92
:1007E0006BD0999D90C098F090AF02D09D8FA9D00A
:1007F0009D9FA7D093C097F093C000F08F51975F53
:1008000090C09DF09D8F91C09CF092C09BF09A6B20
:10081000D8909D339C339B339A33972FF8D798AF5A
:1008200003D099839AD099939791998BEA6A960EFF
:10083000E96EA6D0999B98BF0AD097A113D09D339B
:100840009C339B339A33002AD8B482D00BD09DBFFF
:100850000CD0D8909A379B379C379D370006D8B478
:1008600077D0F5D7998F28D0999F94C098F094AFFE
:1008700002D09D8F66D09D9F64D094C09DF09D8FC7
:1008800095C09CF096C09BF098AF04D09D9F998531
:1008900064D099959A6B9791EA6A920EE96E70D03E
:1008A00098BF1CD090C098F097A106D09D339C3380
:1008B0009B339A33002A4CE09AAF0BD09B2B09E173
:1008C0009C2B07E19D2B05E19D339C339B33002A34
:1008D0003FE099BD86D799BFC7D71CD0800E9D1B1E
:1008E0009DAF04D03AD094C098F00AD090C098F050
:1008F0009D5306E19C5304E19B5302E1006A21D021
:100900009DBF08D0D8909A379B379C379D37002ED3
:10091000F7D71ED098AF02D09D8F13D09D9F11D0D6
:1009200093C000F094C09DF095C09CF096C09BF0E1
:1009300008D08FC000F090C09DF091C09CF092C094
:100940009BF09DC001F09CC002F09BC003F034D02E
:10095000006A016A026A036A2FD09A6B9B1F9C1F70
:100960009D1F9A1F9A2B05E19B2B03E19C2B01E114
:100970009D2B99B115D799B356D799B58AD7B3D7C7
:10098000EF509B2705E39C2B03E19D2BD8B4978167
:10099000ED52EF509C2703E39D2BD8B49781ED5285
:1009A000EF50EFBE01D0800A9D27D8B0978199B94A
:1009B000FED699BB3FD774D712008E0E006E8F51B2
:1009C000005E90C002F091C001F0028E005209E07A
:1009D000D890025202E1015204E002320132002EAC
:1009E000F7D790AF05D0011E021E012AD8B4022A03
:1009F0001200090E905F0BE3EA6A900EE96ED89040
:100A0000EF32EF5004E001D00000EF2EFDD71200CE
:100A1000C282C2B2FED7C4CF02F0C3CF01F0C4CFAE
:100A200003F0C3CF8FF0C4CF90F057EC00F003C0B9
:100A300048F002C047F001C046F000C045F0420E49
:100A4000006E002EFED7000048C09FF047C09EF009
:100A500046C09DF045C09CF0A36BA26B200EA16F19
:100A6000810EA06F72EC00F003C092F002C091F012
:100A700001C090F000C08FF003C096F002C095F066
:100A800001C094F000C093F09A6B996B986B890E3B
:100A9000976FEBEC00F003C04CF002C04BF001C0CC
:100AA0004AF000C049F0010E9D6F020E9E6FD0DC2F
:100AB000890EE96E4CC092F04BC091F04AC090F0A4
:100AC00049C08FF0020E936F76D5810EF66E0B0E35
:100AD000F76E0B0E8F6F2CD648C096F047C095F07E
:100AE00046C094F045C093F06F0E9A6F120E996F46
:100AF000030E986F7F0E976FEBEC00F0D892926B1D
:100B0000916B7A0E906F880E8F6F03C096F002C0C3
:100B100095F001C094F000C093F01ADE03C092F08B
:100B200002C091F001C090F000C08FF046DF02C01B
:100B300050F001C04FF0949A8B8A50C08FF08F2BE9
:100B40008F07D8B403D0906954DFFAD74FC090F024
:100B500050DF949A8B9A94988B884EC08FF08F2B8D
:100B60008F07D8B403D0906944DFFAD74DC090F016
:100B700040DF94988B989E9030EF00F025322E3213
:100B80006620766F6C747320202020200000507245
:100B90006F6A65746F2020534552564F0A0D00004E
:100BA00050726F6A65746F2020534552564F0A0D7C
:100BB00000000A0D446967697465206F20616E67E3
:100BC000756C6F20646F20736572766F20656E742C
:100BD00072652020302065203138302067726175C1
:100BE000733A0D0A00000A0D416E67756C6F206440
:100BF0006967697461646F3D254C550D0A00280EC4
:100C0000546E0C0E556E010E566E060E576E8D927A
:100C100096928D9096908D9496949598959A959C91
:100C2000959E969296909694196AF2BE198EF29EAF
:100C30000F0E9D6F85DC19BEF28E010E536E535060
:100C4000030815E3196AF2BE198EF29E030EA46F13
:100C5000E5EC01F019BEF28E196AF2BE198EF29E11
:100C6000050E9D6F6DDC19BEF28E532AE8D7196A06
:100C7000F2BE198EF29E020EA46FE5EC01F019BED1
:100C8000F28E196AF2BE198EF29E050E9D6F58DC27
:100C900019BEF28E536A5350030814E3036A53508B
:100CA000540FE96E000E0320EA6E196AF2BE198E27
:100CB000F29EEFCFA2F0A16B05EC02F019BEF28E0E
:100CC000532AE9D77CEF09F00900F5520DE0F6CF81
:100CD00053F0F7CF54F0F5509EA8FED7AD6E53C039
:100CE000F6FF54C0F7FFF0D712000900F55212E0EA
:100CF000F6CF53F0F7CF54F0196AF2BE198EF29E78
:100D0000F5CF9CF030DC19BEF28E53C0F6FF54C014
:100D1000F7FFEBD786EF09F09EA8FED7AD6E93EFF5
:100D200006F05850F9D71200020E555E566A9EAA78
:100D3000FED7AECF57F0575008080DE156520AE0E3
:100D4000560657C058F0EDDF200E586EEADF57C048
:100D500058F0E7DF15D057501F0812E257507E08B1
:100D60000FE35650555C0CE35650562A5324E96E57
:100D7000000E5420EA6E57C0EFFF57C058F0D1DF85
:100D800057500D08D4E156505324E96E000E5420FC
:100D9000EA6EEF6AA2EF09F088C08BF087C08DF091
:100DA00086C08CF08A5303E18951000816E28DC099
:100DB00003F08CC0E9FF8DC0EAFF8B51EF5C05E1C9
:100DC0008CC001F08DC002F00BD08C2BD8B48D2BD1
:100DD0008951D8B48A078907E5D7000E016E026EE3
:100DE000120088518A19800B8C6F88AF05D0871F3D
:100DF000881F872BD8B4882B8AAF05D0891F8A1FFC
:100E0000892BD8B48A2B87518903F3CF01F0F4CF13
:100E100000F08A03F350002688518903F350002024
:100E2000026E8CAF05D0011E021E012AD8B4022A20
:100E300068EF08F05F6A5E6A300E616F310E626FB4
:100E4000320E636F330E646F340E656F350E666F4E
:100E5000360E676F370E686F380E696F390E6A6F1E
:100E6000610E6B6F620E6C6F630E6D6F640E6E6F52
:100E7000650E6F6F660E706F670E716F680E726F22
:100E8000690E736F6A0E746F6B0E756F6C0E766FF2
:100E90006D0E776F6E0E786F6F0E796F700E7A6FC2
:100EA000710E7B6F730E7C6F740E7D6F750E7E6F8F
:100EB000760E7F6F770E806F780E816F790E826F5E
:100EC0007A0E836F846B54C059F053C058F059C0E8
:100ED00003F058C0E9FF59C0EAFFEF50200804E1D1
:100EE000582AD8B4592AF3D759C003F058C0E9FF9B
:100EF00059C0EAFFEF502D0809E059C003F058C06F
:100F0000E9FF59C0EAFFEF502B0809E159C0EAFF99
:100F10005850582AD8B4592AE96EEF5001D02B0EF8
:100F2000606F57BE08D0572C01D005D057BE05D0F2
:100F30005750240802E204D184D057524CE0575055
:100F400010081FE159C003F058C0E9FF59C0EAFF7B
:100F5000EF50300816E1010E5824E96E000E5920BA
:100F6000EA6EEF50780809E0010E5824E96E000E91
:100F70005920EA6EEF50580804E1020E5826000E80
:100F80005922575008080DE159C003F058C0E9FF35
:100F900059C0EAFFEF50300804E1010E5826000E58
:100FA00059225750020816E159C003F058C0E9FF12
:100FB00059C0EAFFEF5030080DE1010E5824E96EE8
:100FC000000E5920EA6EEF50620804E1020E582626
:100FD000000E592236D059C003F058C0E9FF59C05D
:100FE000EAFFEF50300803E00A0E576E2AD0010ED8
:100FF0005824E96E000E5920EA6EEF50780809E097
:10100000010E5824E96E000E5920EA6EEF50580880
:1010100007E1100E576E020E5826000E592211D00D
:10102000010E5824E96E000E5920EA6EEF50620856
:1010300006E1020E576E5826000E592202D0080E05
:10104000576E59C05BF058C05AF059C003F058C0F1
:10105000E9FF59C0EAFFEF50300804E1582AD8B43C
:10106000592AF3D759C003F058C0E9FF59C0EAFF25
:10107000EFCF85F08551400806E285515A0803E319
:101080008551200901D08551856F876B610E866F70
:1010900085C088F08A6B57C089F089BF8A077CDEDB
:1010A00002C05DF001C05CF05C5202E15D5242E0C2
:1010B000036A5750006EE8BE0306856F03C086F0D2
:1010C0005FC088F05EC087F003C08AF0896F89D660
:1010D000610E5C5C006E000E5D58036E00500124D2
:1010E0005E6E035002205F6E582AD8B4592A59C048
:1010F00003F058C0E9FF59C0EAFFEFCF85F08551F2
:10110000400806E285515A0803E38551200901D0C1
:101110008551856F876B610E866F85C088F08A6BFD
:1011200057C089F089BF8A0737DE02C05DF001C071
:101130005CF0BAD758505A5C14E159505B5C11E12D
:101140005550561009E055C0E9FF56C0EAFF54C09B
:10115000ECFFED5253C0EFFF000E016E026E19D08E
:10116000000160512D0805E15E1E5F1E5E2AD8B4A5
:101170005F2A5550561009E055C0E9FF56C0EAFFF6
:1011800059C0ECFFED5258C0EFFF5EC001F05FC0E8
:1011900002F00001ABEF09F00900F6CF54F0F7CFF1
:1011A00055F0F5509EA8FED7AD6E54C0F6FF55C061
:1011B000F7FF532EF1D7B6EF09F0EACF5BF0E9CF96
:1011C0005AF05438F009566E5626E20F576E320F19
:1011D000596E54500F0B572657265926E90F586E53
:1011E0005826582653380F0B582659265836593644
:1011F000591E593653500F0B59265636070E556E49
:101200000A0E58065926FDE357065826FDE35606F2
:101210005726FDE355065626FDE3EA6A550EE96EAC
:10122000070E5A145A9CE926000EEA22E950590882
:1012300003E1EA5201E15A8CEF50006E08E15ABC1A
:1012400006D05AB80CD05AB602D0200E03D05A8617
:101250005A98300E002600509EA8FED7AD6EEE5074
:101260005AACE4D7BDEF09F0F86AD09E078E600E45
:10127000D36E9B9C9B9EB8960C0EAF6EA20EAC6E6E
:10128000900EAB6E330E4C6E4B6E2B0E4A6E810E73
:10129000496E526A516A0F01386B396B3A6B3B6B7E
:1012A0003C6B776A786A796A1A6A1B6A200E206E2C
:1012B000216E226E236E246A346E356E366E376E62
:1012C000386AC050C00B0709C06EC08EC280C150C2
:1012D000F00BC16E010E386F000E3C6F396F3A6F24
:1012E0003B6F070ECD6ECC6A000E016EC250830BB1
:1012F0000110C26E000183D48E0EF66E0B0EF76ED7
:10130000E3DCA00EF66E0B0EF76EEFD4040E536EF8
:10131000196AF2BE198EF29EFA0E9D6FA0EC02F0D1
:1013200019BEF28E532EF4D79D80C00EF212B20E6B
:10133000F66E0B0EF76EC8DC546A200E536E040E68
:10134000556EF2D4546A200E536E566A340E556EA2
:101350000A0E576E6FD502C044F001C043F0E60E8E
:10136000F66E0B0EF76E120E536E16D7100EE96E58
:1013700044C054F043C053F020D70D0E9EA8FED7B2
:10138000AD6E0A0E9EA8FED7AD6E196AF2BE198E1A
:10139000F29E44C090F043C08FF057EC00F019BEAD
:1013A000F28E196AF2BE198EF29E03C09FF002C03F
:1013B0009EF001C09DF000C09CF0A80EA36FC60E69
:1013C000A26F310EA16F810EA06F72EC00F019BEFA
:1013D000F28ED892196AF2BE198EF29E926B916BC0
:1013E0007A0E906F880E8F6F03C096F002C095F052
:1013F00001C094F000C093F0A8EC03F019BEF28E87
:10140000196AF2BE198EF29E03C092F002C091F0EA
:1014100001C090F000C08FF0DDEC04F019BEF28E38
:0C14200002C04EF001C04DF082D7030066
:020000040030CA
:0E00000000E81E3C00BF81000FC00FE00F4063
:00000001FF
;PIC18F46K22
;CRC=D56F  CREATED="15-mai-23 16:57"
