:040000001FEF09F0F5
:08000800046ED8CF05F0E0CF33
:1000100006F00001E9CF0CF0EACF07F0E1CF08F0DD
:10002000E2CF09F0D9CF0AF0DACF0BF0F3CF12F01C
:10003000F4CF13F0FACF14F0F5CF15F0F6CF16F099
:10004000F7CF17F000C00EF001C00FF002C010F0A3
:1000500003C011F09DA030EF00F09EB00BEF05F053
:100060000EC000F00FC001F010C002F011C003F08C
:100070000CC0E9FF07C0EAFF078E08C0E1FF09C016
:10008000E2FF0AC0D9FF0BC0DAFF12C0F3FF13C0B2
:10009000F4FF14C0FAFF15C0F5FF16C0F6FF17C035
:1000A000F7FF045006C0E0FF05C0D8FF10008E0E19
:1000B000006E9CC001F09BC002F0036A015209E18E
:1000C00002C001F0026A080E005E015202E1006AFD
:1000D00008D0D89001BE04D0023601360006F9D708
:1000E000019E1200A851D8B471D0006EAC51D8B4A2
:1000F0006DD0002604E3810E002668E204D07F0E56
:10010000005E64E363E0A9C0B0F0AD51B01BA98FFD
:10011000AD8FAB51AF03F4CFB2F0AA51AE03F4CF21
:1001200003F0F3CFB1F0AF03F350B227F450B12393
:10013000000E0322AB51AE03F350B227F450B123AB
:10014000000E026A03220222A951AF03F350B12725
:10015000F4500322000E0222A951AE03F3500326ED
:10016000F4500222000E016A0122AB51AD03F3509C
:10017000B127F4500322000E02220122AA51AD033E
:10018000F3500326F4500222000E0122A951AD03C0
:10019000F3500226F4500122002A01BE05D0B137E7
:1001A0000336023601360006000EB1AF0AD0032A2C
:1001B00002220122015005E1025003E1035001E156
:1001C000002AB0BF018EB0AF019E04D0006A016A60
:1001D000026A036A12009F51D8B4A5D0AB6FA35135
:1001E000D8B4A1D0AB5F05E37F0EAB27D8B09BD0CE
:1001F00006D0810EAB5FD8A096D0D8B494D0ABC057
:1002000000F0016A026A036AAA6BA0C0A9F0A98F74
:10021000A1C0A8F0A2C0A7F0190EAB6FA651A75FAE
:100220000DE2010EA85F0AE2A95F08E2AA5F06E2FA
:10023000AA2BA92BA82BA651A72728D0A551A85F88
:1002400012E2010EA95F0FE2AA5F0DE2AA2BA92B11
:10025000A551A827A651A72719E3A82B17E1A92B79
:1002600015E1AA2B13D0A4518009A95F0EE2010E5B
:10027000AA5F0BE2AA2BA4518009A927A551A827A0
:10028000E9E3A92BE7E1AA2BE5D70380AB2F01D047
:100290000BD0D890A737A837A937AA37D8900336FC
:1002A00002360136AC37BAD7ACA106D0D8900132AD
:1002B00002320332AC3302D0000635E0ACBF1ED0B0
:1002C000D890A737A837A937AA37A651A75F07E262
:1002D000010EA85F04E2A95F02E2AA5F1AE3A5513A
:1002E000A85F05E2010EA95F02E2AA5F12E3A45132
:1002F0008009A95F03E2010EAA5F0BE3032A09E16B
:10030000022A07E1012A05E1002A0DE0013202324A
:100310000332A0C0ABF0A451AB1BABAF02D0018E37
:1003200006D0019E04D0006A016A026A036A1200C4
:10033000B16B9588000E83B8010EB113958A000E3B
:1003400083BA010E006ED89000360050B113958C20
:10035000000E83BC010E006E00360036FC0E001647
:100360000050B113958E000E83BE010E006E003654
:1003700000360036F80E00160050B113B1C001F07F
:1003800012009588958A958C958E8D8496940000A0
:100390008D8296920000CCDF01C0B0F08D929692D3
:1003A00000008D82969204000000C2DF01C0AFF011
:1003B0008D9296929598959A959C959EB039006EDF
:1003C000F00E00160050AF11016E1200B0B102D055
:1003D0008C9801D08C889598B0B302D08C9A01D0BB
:1003E0008C8A959AB0B502D08C9C01D08C8C959C4F
:1003F000B0B702D08C9E01D08C8E959E00008D826D
:100400009692040000D000008D929692120096926F
:10041000969096948D909690B4DF01C0AFF001BE97
:10042000FBD7AD5302E18D9001D08D8096900000F6
:100430008D94969400008D929692AE39AF6F0F0E08
:10044000AF17AFC0B0F0C2DFAE510F0BAF6FB06FE0
:10045000BDDF1200AA2D01D003D0400EAB6F01D03A
:10046000AB6B010EA95DAB27AB518009AC6FAD6BD7
:10047000AE6FCDDF1200A851B608A86F036AA9C0FD
:10048000ACF0A98FD890A933AA33AB330332023230
:1004900001320032A82FF6D7ACAF0BD0001E011EE0
:1004A000021E031E002AD8B4012AD8B4022AD8B4E6
:1004B000032A1200D8B203D0EA6AB00EE96E006ACD
:1004C000016A026A036AB06BB16BB26BB36BAF5176
:1004D000AE11AD11AC112CE0200EB46FD890A8373E
:1004E000A937AA37AB37B037B137B237B337AF51C7
:1004F000B35D08E1AE51B25D05E1AD51B15D02E120
:10050000AC51B05D0FE3AC51B05FAD51D8A0AD3D83
:10051000B15FAE51D8A0AE3DB25FAF51D8A0AF3DF4
:10052000B35FD8800036013602360336B42FD6D7F3
:10053000B0C0EFFFB1C0ECFFB2C0ECFFB3C0ECFF46
:100540001200EA6AA90EE96EEF5011E0020E016E88
:10055000BF0E006E0400002EFDD7012EF9D7960EB7
:10056000006E002EFED700D00400EF2EEFD7120051
:10057000A851070A07E00B0A0AE0060A10E0020A7F
:1005800014E018D0010EA96FAA6F64DF18D0AD6B0C
:10059000010EAE6F3CDF020EA96FD3DF10D0010E4B
:1005A000A96F020EAA6F56DF0AD0AD6B100EAE6FA8
:1005B0002EDF05D0010EAD6FA8C0AEF028DF12000F
:1005C000E950A06F9F51A26F19E09EC0ABF09DC093
:1005D000AAF09CC0A9F09BC0A8F0AF6BAE6B200E38
:1005E000AD6F820EAC6F7EDD03C09EF002C09DF049
:1005F00001C09CF000C09BF0A22FE7D79EC0ABF0DB
:100600009DC0AAF09CC0A9F09BC0A8F034DF03C035
:100610009EF002C09DF001C09CF000C09BF09EAF18
:100620000DD0A007A08B9B1F9C1F9D1F9E1F9B2B67
:10063000D8B49C2BD8B49D2BD8B49E2B3B0EA76F5F
:100640009A0EA66FCA0EA56FA46B0A0EA26F9F51D9
:10065000D8B4A02BD882EA6A9B0EE96E9EC0ABF09C
:100660009DC0AAF09CC0A9F09BC0A8F0A7C0AFF0A5
:10067000A6C0AEF0A5C0ADF0A4C0ACF01BDF015029
:1006800000520FE19F29A25D0CE0A0510CE00F0B7E
:10069000A25D01E037E2A0BF35D0A0BD04D0200E9E
:1006A0002DD0200EA017A0AB0CD0A09B9F51D8A49A
:1006B000A0070050A06F2D0EA86F5ADFA051006E4A
:1006C000A06B9F51A25D0AE10050A06F2E0EA86F93
:1006D0004FDFA051006E200EA017000E300EA0AB11
:1006E0000DD0A09B9F51D8A4A0070050A06F2D0E45
:1006F000A86F3EDFA051006EA06B300E002600C038
:10070000A8F036DFD892A7C0ABF0A6C0AAF0A5C06B
:10071000A9F0A4C0A8F0AF6BAE6BAD6B0A0EAC6FC6
:10072000C9DE03C0A7F002C0A6F001C0A5F000C05A
:10073000A4F0A22F8FD712000900F6CF9CF0F7CFBC
:100740009DF0F5CFA8F014DF9CC0F6FF9DC0F7FF29
:100750009B2FF2D71200800ED8B2A01BA56BA66B00
:100760009CC0A4F0A051A41B9B51D8B4DCD0A36FB3
:10077000006E9F51D8B4E0D0A35FD8B481D03DE3E0
:10078000A0C0A9F0A98FA1C0A8F0A2C0A7F0A66B35
:10079000D890A933A833A733A633A32FF8D7A4AF93
:1007A00003D0A581DDD0A591A391A589EA6A9E0E0B
:1007B000E96EE9D0A599A4BF0AD0A3A113D0A933AB
:1007C000A833A733A633002AD8B4C5D00BD0A9BF0D
:1007D0000CD0D890A637A737A837A9370006D8B4C9
:1007E000BAD0F5D7A58D6BD0A59D9CC0A4F09CAFC9
:1007F00002D0A98FA9D0A99FA7D09FC0A3F09FC066
:1008000000F09B51A35F9CC0A9F0A98F9DC0A8F0E8
:100810009EC0A7F0A66BD890A933A833A733A63300
:10082000A32FF8D7A4AF03D0A5839AD0A593A39103
:10083000A58BEA6AA20EE96EA6D0A59BA4BF0AD03A
:10084000A3A113D0A933A833A733A633002AD8B461
:1008500082D00BD0A9BF0CD0D890A637A737A83725
:10086000A9370006D8B477D0F5D7A58F28D0A59F93
:10087000A0C0A4F0A0AF02D0A98F66D0A99F64D079
:10088000A0C0A9F0A98FA1C0A8F0A2C0A7F0A4AFF2
:1008900004D0A99FA58564D0A595A66BA391EA6A0B
:1008A0009E0EE96E70D0A4BF1CD09CC0A4F0A3A182
:1008B00006D0A933A833A733A633002A4CE0A6AF4D
:1008C0000BD0A72B09E1A82B07E1A92B05E1A93340
:1008D000A833A733002A3FE0A5BD86D7A5BFC7D759
:1008E0001CD0800EA91BA9AF04D03AD0A0C0A4F0A0
:1008F0000AD09CC0A4F0A95306E1A85304E1A75371
:1009000002E1006A21D0A9BF08D0D890A637A73746
:10091000A837A937002EF7D71ED0A4AF02D0A98FD1
:1009200013D0A99F11D09FC000F0A0C0A9F0A1C012
:10093000A8F0A2C0A7F008D09BC000F09CC0A9F00E
:100940009DC0A8F09EC0A7F0A9C001F0A8C002F009
:10095000A7C003F034D0006A016A026A036A2FD08C
:10096000A66BA71FA81FA91FA61FA62B05E1A72BD3
:1009700003E1A82B01E1A92BA5B115D7A5B356D743
:10098000A5B58AD7B3D7EF50A72705E3A82B03E176
:10099000A92BD8B4A381ED52EF50A82703E3A92BCC
:1009A000D8B4A381ED52EF50EFBE01D0800AA92741
:1009B000D8B0A381A5B9FED6A5BB3FD774D7120086
:1009C0008E0E006E9B51005E9CC002F09DC001F037
:1009D000028E005209E0D890025202E1015204E076
:1009E00002320132002EF7D79CAF05D0011E021E45
:1009F000012AD8B4022A1200090E9C5F0BE3EA6AAE
:100A00009C0EE96ED890EF32EF5004E001D0040064
:100A1000EF2EFDD71200C282C2B2FED7C4CF02F0C1
:100A2000C3CF01F0C4CF03F0C3CF9BF0C4CF9CF081
:100A300057EC00F003C052F002C051F001C050F07A
:100A400000C04FF00400420E006E002EFED752C0D0
:100A5000ABF051C0AAF050C0A9F04FC0A8F0AF6BE6
:100A6000AE6B200EAD6F810EAC6F72EC00F003C068
:100A70009EF002C09DF001C09CF000C09BF003C03E
:100A8000A2F002C0A1F001C0A0F000C09FF0A66BD0
:100A9000A56BA46B890EA36FEBEC00F003C058F0BC
:100AA00002C057F001C056F000C055F0010EA96F0A
:100AB000020EAA6FCFDC890EE96E58C09EF057C0B7
:100AC0009DF056C09CF055C09BF0020E9F6F78DDE4
:100AD000870EF66E0B0EF76E0B0E9B6F2DDE52C05F
:100AE000A2F051C0A1F050C0A0F04FC09FF06F0E17
:100AF000A66F120EA56F030EA46F7F0EA36FEBEC13
:100B000000F0D8929E6B9D6B7A0E9C6F880E9B6F47
:100B100003C0A2F002C0A1F001C0A0F000C09FF08D
:100B20001ADE03C09EF002C09DF001C09CF000C020
:100B30009BF046DF02C05CF001C05BF0949A8B8AA8
:100B40005CC09BF09B2B9B07D8B403D09C6954DFFF
:100B5000FAD75BC09CF050DF949A8B9A94988B885C
:100B60005AC09BF09B2B9B07D8B403D09C6944DFF1
:100B7000FAD759C09CF040DF94988B989E9030EF44
:100B800000F025322E326620766F6C7473202020A0
:100B90002020000050726F6A65746F202053455208
:100BA000564F0A0D000025322E326620766F6C7487
:100BB00073202020202000000A0D446967697465B5
:100BC000206F20616E67756C6F20646F2073657293
:100BD000766F20656E747265202030206520313874
:100BE000302067726175733A0D0A00000A0D416E7C
:100BF00067756C6F20646967697461646F3D254C2B
:100C0000550D0A00280E606F0C0E616F010E626FA9
:100C1000060E636F8D9296928D9096908D94969419
:100C20009598959A959C959E969296909694196A09
:100C3000F2BE198EF29E0F0EA96F83DC19BEF28EE2
:100C4000010E5F6E5F50030815E3196AF2BE198E3C
:100C5000F29E030EB06FE6EC01F019BEF28E196A37
:100C6000F2BE198EF29E050EA96F6BDC19BEF28ED4
:100C70005F2AE8D7196AF2BE198EF29E020EB06F93
:100C8000E6EC01F019BEF28E196AF2BE198EF29EE0
:100C9000050EA96F56DC19BEF28E5F6A5F5003081D
:100CA00014E3036A5F50600FE96E000E0320EA6EE2
:100CB000196AF2BE198EF29EEFCFAEF0AD6B07EC63
:100CC00002F019BEF28E5F2AE9D76AEF09F0090037
:100CD000F5520DE0F6CF5FF0F7CF60F0F5509EA82B
:100CE000FED7AD6E5FC0F6FF60C0F7FFF0D7120011
:100CF0009EA8FED7AD6E7FEF06F06451F9D71200C3
:100D0000020E615F626B9EAAFED7AECF63F06351A5
:100D100008080DE162530AE0620763C064F0EDDF8A
:100D2000200E646FEADF63C064F0E7DF15D0635123
:100D30001F0812E263517E080FE36251615D0CE30C
:100D40006251622B5F24E96E000E6021EA6E63C07F
:100D5000EFFF63C064F0D1DF63510D08D4E162514D
:100D60005F24E96E000E6021EA6EEF6AD0EF09F0B1
:100D700094C097F093C099F092C098F0965303E115
:100D80009551000816E299C003F098C0E9FF99C098
:100D9000EAFF9751EF5C05E198C001F099C002F0BD
:100DA0000BD0982BD8B4992B9551D8B496079507AA
:100DB000E5D7000E016E026E120094519619800B59
:100DC000986F94AF05D0931F941F932BD8B4942B96
:100DD00096AF05D0951F961F952BD8B4962B93519F
:100DE0009503F3CF01F0F4CF00F09603F350002603
:100DF00094519503F3500020026E98AF05D0011E68
:100E0000021E012AD8B4022A54EF08F06B6B6A6BF9
:100E1000300E6D6F310E6E6F320E6F6F330E706F5E
:100E2000340E716F350E726F360E736F370E746F2E
:100E3000380E756F390E766F610E776F620E786FB0
:100E4000630E796F640E7A6F650E7B6F660E7C6F32
:100E5000670E7D6F680E7E6F690E7F6F6A0E806F02
:100E60006B0E816F6C0E826F6D0E836F6E0E846FD2
:100E70006F0E856F700E866F710E876F730E886FA1
:100E8000740E896F750E8A6F760E8B6F770E8C6F6E
:100E9000780E8D6F790E8E6F7A0E8F6F906B60C0AB
:100EA00065F05FC064F065C003F064C0E9FF65C031
:100EB000EAFFEF50200804E1642BD8B4652BF3D788
:100EC00065C003F064C0E9FF65C0EAFFEF502D087C
:100ED00009E065C003F064C0E9FF65C0EAFFEF50B8
:100EE0002B0809E165C0EAFF6451642BD8B4652B77
:100EF000E96EEF5001D02B0E6C6F63BF08D0632DED
:100F000001D005D063BF05D06351240802E204D1AB
:100F100084D063534CE0635110081FE165C003F0B7
:100F200064C0E9FF65C0EAFFEF50300816E1010E2A
:100F30006425E96E000E6521EA6EEF50780809E03D
:100F4000010E6425E96E000E6521EA6EEF50580827
:100F500004E1020E6427000E6523635108080DE1C9
:100F600065C003F064C0E9FF65C0EAFFEF503008D8
:100F700004E1010E6427000E65236351020816E1A7
:100F800065C003F064C0E9FF65C0EAFFEF503008B8
:100F90000DE1010E6425E96E000E6521EA6EEF5049
:100FA000620804E1020E6427000E652336D065C096
:100FB00003F064C0E9FF65C0EAFFEF50300803E0CA
:100FC0000A0E636F2AD0010E6425E96E000E6521BA
:100FD000EA6EEF50780809E0010E6425E96E000E14
:100FE0006521EA6EEF50580807E1100E636F020E9C
:100FF0006427000E652311D0010E6425E96E000EF2
:101000006521EA6EEF50620806E1020E636F642705
:10101000000E652302D0080E636F65C067F064C0E0
:1010200066F065C003F064C0E9FF65C0EAFFEF50F9
:10103000300804E1642BD8B4652BF3D765C003F006
:1010400064C0E9FF65C0EAFFEFCF91F0915140081D
:1010500006E291515A0803E39151200901D09151C0
:10106000916F936B6D0E926F91C094F0966B63C00D
:1010700095F095BF96077CDE02C069F001C068F06C
:10108000685302E1695342E0036A6351006EE8BEAF
:101090000306916F03C092F06BC094F06AC093F0A6
:1010A00003C096F0956F89D66D0E685D006E000ED8
:1010B0006959036E005001246A6F035002206B6F60
:1010C000642BD8B4652B65C003F064C0E9FF65C02C
:1010D000EAFFEFCF91F09151400806E291515A0892
:1010E00003E39151200901D09151916F936B6D0EE3
:1010F000926F91C094F0966B63C095F095BF960780
:1011000037DE02C069F001C068F0BAD76451665D8D
:1011100014E16551675D11E100016151621109E05F
:1011200061C0E9FF62C0EAFF60C0ECFFED525FC042
:10113000EFFF000E016E026E18D06C512D0805E114
:101140006A1F6B1F6A2BD8B46B2B6151621109E0C7
:1011500061C0E9FF62C0EAFF65C0ECFFED5264C008
:10116000EFFF6AC001F06BC002F0D9EF09F009008F
:10117000F6CF60F0F7CF61F0F5509EA8FED7AD6EC8
:1011800060C0F6FF61C0F7FF5F2EF1D7E4EF09F012
:10119000EACF67F0E9CF66F06039F009626F622745
:1011A000E20F636F320F656F60510F0B6327632788
:1011B0006527E90F646F642764275F380F0B642786
:1011C000652764376537651F65375F500F0B6527E7
:1011D0006237070E616F0A0E64076527FDE3630738
:1011E0006427FDE362076327FDE361076227FDE3F0
:1011F000EA6A610EE96E070E6615669DE926000E25
:10120000EA22E950650803E1EA5201E1668DEF50F8
:10121000006E08E166BD06D066B90CD066B702D094
:10122000200E03D066876699300E002600509EA8D7
:10123000FED7AD6EEE5066ADE4D7EBEF09F0F86A7D
:10124000D09E078E600ED36E9B9C9B9EB8960C0E14
:10125000AF6EA20EAC6E900EAB6E330E586E576E24
:101260002B0E566E810E556E5E6A5D6A0F01386BED
:10127000396B3A6B3B6B3C6B776A786A796A1A6AAE
:101280001B6A200E206E216E226E236E246A346E3D
:10129000356E366E376E386AC050C00B0709C06EA7
:1012A000C08EC280C150F00BC16E010E386F000EAF
:1012B0003C6F396F3A6F3B6F070ECD6ECC6A9D80E5
:1012C000C00EF212000E016EC250830B0110C26EEE
:1012D000000198D4940EF66E0B0EF76EF8DCC28205
:1012E000C2B2FED7C4CF02F0C3CF01F0C4CF03F027
:1012F000C350196AF2BE198EF29E9B6FC4CF9CF048
:1013000057EC00F019BEF28E03C052F002C051F04B
:1013100001C050F000C04FF0196AF2BE198EF29E63
:10132000010EA96F020EAA6F2AEC02F019BEF28E0E
:10133000890EE96E196AF2BE198EF29E58C09EF0AF
:1013400057C09DF056C09CF055C09BF0020E9F6F99
:10135000E0EC02F019BEF28EAB0EF66E0B0EF76EDD
:10136000196AF2BE198EF29E0B0E9B6F9CEC03F075
:1013700019BEF28E196AF2BE198EF29E640EA96F22
:10138000A1EC02F019BEF28E9D80B80EF66E0B0E27
:10139000F76E9DDC606B200E5F6E040E616FB0D443
:1013A000606B200E5F6E626B340E616F0A0E636FAE
:1013B0002DD502C046F001C045F0EC0EF66E0B0EC6
:1013C000F76E120E5F6ED3D6100EE96E46C060F057
:1013D00045C05FF0DDD60D0E9EA8FED7AD6E0A0E9D
:1013E0009EA8FED7AD6E196AF2BE198EF29E46C057
:1013F0009CF045C09BF057EC00F019BEF28E196AC4
:10140000F2BE198EF29E03C0ABF002C0AAF001C07A
:10141000A9F000C0A8F0A80EAF6FC60EAE6F310ED7
:10142000AD6F810EAC6F72EC00F019BEF28ED892E7
:10143000196AF2BE198EF29E9E6B9D6B7A0E9C6F9E
:10144000880E9B6F03C0A2F002C0A1F001C0A0F003
:1014500000C09FF0ABEC03F019BEF28E196AF2BE29
:10146000198EF29E03C09EF002C09DF001C09CF058
:1014700000C09BF0E0EC04F019BEF28E02C05AF0FE
:0814800001C059F082D70300FE
:020000040030CA
:0E00000000E8181C00BF81000FC00FE00F4089
:00000001FF
;PIC18F46K22
;CRC=3676  CREATED="21-ago-21 15:50"
