:1000000060EF01F0F76A140FF66E000EF722090098
:10001000F55012003132333435363738392A30232F
:100020000C44696769746520756D61207465636C43
:10003000610A000077EF01F0EA6A100EE96EEF50F6
:1000400011E0020E016EBF0E006E0400002EFDD7FF
:10005000012EF9D7960E006E002EFED700D00400B8
:10006000EF2EEFD712001538F00B006E0F0E8A142A
:1000700000108A6E00008A80040000D000008A9080
:1000800012008150006E00380F0B016E12000F0E2F
:100090009314F009936E8A8400008A800000F1DFD7
:1000A00001C015F08A9000008A8004000000E9DF9A
:1000B00001C014F08A900F0E9314936E1538006EE1
:1000C000F00E001600501410016E6CEF00F09390CB
:1000D000939293948A92DBD701C014F001BEFBD7B0
:1000E0008A9212B08A8200008A9400008A901338A3
:1000F000146E0F0E141614C015F0B5DF13500F0B4D
:10010000146E156EB0DF1200280E0C6E0C0E0D6E04
:10011000010E0E6E060E0F6E8A908A928A940F0E52
:100120009314936E9390939293940F0E106E84DFBA
:10013000010E0B6E0B50030808E3030E156E93DFE0
:10014000050E106E79DF0B2AF5D7020E156E8BDFC8
:10015000050E106E71DF0B6A0B5003080DE3036A86
:100160000B500C0FE96E000E0320EA6EEFCF13F078
:10017000126AADDF0B2AF0D778EF01F00F2C01D017
:1001800003D0400E106E01D0106A010E0E5C1026D6
:1001900010508009116E126A136E99DF12000D5013
:1001A000070A07E00B0A0AE0060A10E0020A14E058
:1001B00018D0010E0E6E0F6EE1DF18D0126A010E1C
:1001C000136E85DF020E106E37DF10D0010E0E6E3B
:1001D000020E0F6ED3DF0AD0126A100E136E77DF95
:1001E00005D0010E126E0DC013F071DF1200090070
:1001F000F5520CE0F6CF0BF0F7CF0CF0F5CF0DF089
:10020000CEDF0BC0F6FF0CC0F7FFF1D77DEF01F09A
:100210000B6A042A045021084DE2075005E0010A48
:1002200007E0030A09E00BD0DE0E956E836E07D05F
:10023000BE0E956E836E03D07E0E956E836E05A006
:1002400009D083501E0B1E0804E1059006C00BF078
:10025000066A2FD083501E0B1E0826E08350020B27
:1002600002E10C6A11D08350040B03E1010E0C6E05
:100270000BD08350080B03E1020E0C6E05D08350A7
:10028000100B02E1030E0C6E0C50030DF3500E6ABE
:100290000D6E036A07500D24016E0E5003220150AB
:1002A000B1DE066E058005D0072A0750030801E17C
:1002B000076A046AFE0E956E0BC001F07EEF01F036
:1002C000F86AD09E700ED36E9B6AD350096A086A92
:1002D000C150C00B0F09C16E070EB46E046A0590C1
:1002E000066A076AC150C00B0F09C16EA3D60CD7AE
:1002F000200EF66E000EF76E7AD78AD701C00AF08C
:100300000A520AE00A502A0804E10C0E0D6E47DF7B
:0C03100003D00AC00DF043DFF0D703005B
:020000040030CA
:0E00000000C81E1E008781000FC00FE00F40D9
:00000001FF
;PIC18F4520
;CRC=9400  CREATED="20-ago-21 23:57"
