:10000000A6EF03F00000000000EF00F00000000089
:0A0010000000000000000000F3D71C
:0A001C00210E0D6E0D2EFED712000E
:100026000F0E0C6E470E0D6E0D2EFED70C2EFCD746
:06003600000000001200B2
:06003C00000000001200AC
:100042000B6A0A6A096A086A0E6A0334083604509F
:10005200085E0550D8A0053C095E0650D8A0063CB3
:100062000A5E0750D8A0073C0B5EE86AD8A0010ED2
:100072000E5E0336070E0C6E0334083609360A3656
:100082000B360E36045003A012D0085E0550D8A0DD
:10009200053C095E0650D8A0063C0A5E0750D8A06F
:1000A200073C0B5EE86AD8A0010E0E5E11D008264E
:1000B2000550D8B0053C09260650D8B0063C0A26A1
:1000C2000750D8B0073C0B26E86AD8B0010E0E26BE
:1000D20003360C2ED1D70234083609360A360B36CF
:1000E2000E36045003A012D0085E0550D8A0053C7D
:1000F200095E0650D8A0063C0A5E0750D8A0073C0D
:100102000B5EE86AD8A0010E0E5E11D008260550DB
:10011200D8B0053C09260650D8B0063C0A2607503E
:10012200D8B0073C0B26E86AD8B0010E0E2602367C
:10013200070E0C6E0234083609360A360B360E36B6
:10014200045002A012D0085E0550D8A0053C095EFA
:100152000650D8A0063C0A5E0750D8A0073C0B5EAA
:10016200E86AD8A0010E0E5E11D008260550D8B05C
:10017200053C09260650D8B0063C0A260750D8B0DE
:10018200073C0B26E86AD8B0010E0E2602360C2E6A
:10019200D1D70134083609360A360B360E360450EA
:1001A20002A012D0085E0550D8A0053C095E065098
:1001B200D8A0063C0A5E0750D8A0073C0B5EE86A4E
:1001C200D8A0010E0E5E11D008260550D8B0053C0D
:1001D20009260650D8B0063C0A260750D8B0073C7C
:1001E2000B26E86AD8B0010E0E260136070E0C6EF9
:1001F2000134083609360A360B360E36045001A091
:1002020012D0085E0550D8A0053C095E0650D8A061
:10021200063C0A5E0750D8A0073C0B5EE86AD8A0ED
:10022200010E0E5E11D008260550D8B0053C0926F5
:100232000650D8B0063C0A260750D8B0073C0B2619
:10024200E86AD8B0010E0E2601360C2ED1D7003442
:10025200083609360A360B360E36045001A012D083
:10026200085E0550D8A0053C095E0650D8A0063CA1
:100272000A5E0750D8A0073C0B5EE86AD8A0010EC0
:100282000E5E11D008260550D8B0053C092606504E
:10029200D8B0063C0A260750D8B0073C0B26E86ABD
:1002A200D8B0010E0E260036070E0C6E003408364A
:1002B20009360A360B360E36045000A012D0085EFC
:1002C2000550D8A0053C095E0650D8A0063C0A5E3F
:1002D2000750D8A0073C0B5EE86AD8A0010E0E5E5C
:1002E20011D008260550D8B0053C09260650D8B0D2
:1002F200063C0A260750D8B0073C0B26E86AD8B05D
:10030200010E0E2600360C2ED1D700B00ED00450AE
:1003120008260550D8B0053C09260650D8B0063C40
:0C0322000A260750D8B0073C0B2612003A
:10032E0057BE02D08C9E01D08C8E57BC02D08C9CB6
:10033E0001D08C8C57BA02D08C9A01D08C8A57B8C7
:10034E0002D08C9801D08C8828B002D08D8401D038
:10035E008D948D826CDE8D9257B602D08C9E01D01C
:10036E008C8E57B402D08C9C01D08C8C57B202D09C
:10037E008C9A01D08C8A57B002D08C9801D08C8880
:10038E0028B002D08D8401D08D948D8250DE8D9256
:0C039E0028A002D041DE01D03ADE12009F
:0C03AA0028904DC057F0BEDF28801200E4
:1003B600536A546A000E545C02E10A0E535C0BE267
:1003C60053505124E16E54505220E26E200EE66ED8
:1003D600534A542AEFD753505124E16E54505220B9
:1003E600E26EE66A010E535E000E545A53505124D3
:1003F600556E54505220566E0A0E046E000E056E4F
:10040600066E076E4DC000F04EC001F04FC002F000
:1004160050C003F013DE08C000F009C001F00AC0A6
:1004260002F00BC003F0300E002655C0E1FF56C0A7
:10043600E2FF00C0E6FF0A0E046E000E056E066EB1
:10044600076E4DC000F04EC001F04FC002F050C024
:1004560003F0F4DD00C04DF001C04EF002C04FF0D5
:1004660003C050F0000E046E031808E10450021891
:1004760005E10450011802E10050000A01E105D02F
:0C048600010E535E000E545AB1D7120054
:0C0492000E0E0D6E0D2EFED700001200A5
:10049E000FD0800E3F6E19D0C00E3F6E16D0940E48
:1004AE003F6E13D0D40E3F6E10D0800E3F6E0DD027
:1004BE003F50010AEEE03F50020AEEE03F50030AC1
:1004CE00EEE03F50040AEEE0F0D74004006E3F50DD
:1004DE00002600C03FF000C057F022DF2890436A8C
:1004EE0043504124E96E000E4220EA6EEE520BE0BC
:1004FE0043504124E96E000E4220EA6EEECF4DF0DD
:0A050E004DDF432AEDD728801200CC
:10051800969296949598959A959C959E8D928D9481
:100528008C9E8C9C8C9A8C987ADD79DD78DD8C8A0F
:100538008C888D827FDD8D9272DD8D827BDD8D9240
:100548006EDD8D8277DD8D926ADD8C988D8272DD0D
:100558008D9265DD8D826EDD8D928C9A8C8E8D826A
:1005680069DD8D925CDD8C9E8C888D8263DD8D9239
:100578008C988D825FDD8D9252DD8D825BDD8D9250
:100588008C888D8257DD8D924ADD8C988D8252DD64
:100598008D928C8E8C8C8C8A8C888D824BDD8D9282
:0605A8003EDD2880120078
:1005AE000900F5CFE6FF0006FBE10106F9E11200B6
:1005BE00476A486A3FC049F040C04AF041C04BF01C
:1005CE0042C04CF0800E4218006E800E005C08E1B6
:1005DE00000E415C05E1000E405C02E1000E3F5C46
:1005EE0010E2010E476E000E486E496A4A6A4B6A67
:1005FE004C6A3F50495E40504A5A41504B5A425005
:10060E004C5A49C04DF04AC04EF04BC04FF04CC052
:10061E0050F043C051F044C052F0C6DE0B0E456E92
:10062E00000E466E000E006E4650005C02E1455014
:10063E00000819E245504324E16E46504420E26E14
:10064E00010E455C006E000E4658016E00504324AC
:10065E00E96E01504420EA6EEECFE6FF010E455ED4
:10066E00000E465ADFD743C0E1FF44C0E2FF200E22
:10067E00E66E475048101AE0456A466A45504324D4
:10068E00E96E46504420EA6EEE50200A03E1454AD8
:10069E00462AF4D7010E455E000E465A45504324B5
:0E06AE00E16E46504420E26E2D0EE66E120004
:1006BC00220E0C6E086A096A0A6A0B6A0C06D8B418
:1006CC001FD0D8900B320A32093208320332023270
:1006DC0001320032D8A0F2D70C06D8B409D004509D
:1006EC0008260550092206500A2207500B22EAD789
:1006FC00045008260550092206500A2207500B22E6
:02070C001200D9
:10070E00C26A191C006E0050C116070EC012C08EB0
:10071E003FC000F000360090003600900050C2122C
:10072E00C280B0DEC282C2A201D0FDD7C4CF01F01A
:0E073E00006AC3500012000E0112C290120099
:10074C0066EC04F0936A956A0D0EC16E0F0E926EF4
:10075C00DDDE010E576EE5DD0C0E576EE2DD010E8F
:10076C003F6E010E406E1F0E416E000E426E91DE0A
:10077C00020E3F6E010E406E1A0E416E000E426E5E
:10078C0088DE0B0EC16E0F0E926E3F6ABADF00C090
:10079C0024F001C025F0000E266E276E060E0D6E9D
:1007AC000D2EFED7000024C000F025C001F026C09D
:1007BC0002F027C003F0880E046E130E056E000EB7
:1007CC00066E076E75DF0A0E046E00C03BF001C0AA
:1007DC003CF002C03DF003C03EF0045007E03E3256
:1007EC003D323C323B323E9EFF0FF8D7010E3F6E3E
:1007FC0088DF00C015F001C016F0000E176E186EE1
:10080C00060E0D6E0D2EFED7000015C000F016C0A2
:10081C0001F017C002F018C003F0880E046E130E1E
:10082C00056E000E066E076E43DF0A0E046E00C0E6
:10083C0029F001C02AF002C02BF003C02CF00450A8
:10084C0007E02C322B322A3229322C9EFF0FF8D79C
:10085C003BC03FF03CC040F03DC041F03EC042F0D8
:10086C002D0E436E000E446EA4DE010E3F6E060E7E
:10087C00406E2D0E416E000E426E0BDE29C03FF015
:10088C002AC040F02BC041F02CC042F02D0E436E1C
:10089C00000E446E8EDE020E3F6E060E406E2D0E66
:0C08AC00416E000E426EF5DD70D7FFD7E4
:1008CC0010EE15F0130E006E010E016EB80EF66EE2
:0E08DC00080EF76E000EF86ED7EC02F0120058
:0408B800000000003C
:0108BC00300B
:0508BD00414E313A003C
:0508C200414E303A0038
:0408C700000000002D
:020000040030CA
:0D000100020F0EFF0181FF0FC00FE00F4046
:00000001FF
