:0400000048EF02F0D3
:08000800046ED8CF05F0E0CF33
:1000100006F00001E9CF0CF0EACF07F0E1CF08F0DD
:10002000E2CF09F0D9CF0AF0DACF0BF0F3CF12F01C
:10003000F4CF13F0FACF14F0F5CF15F0F6CF16F099
:10004000F7CF17F000C00EF001C00FF002C010F0A3
:1000500003C011F0F2AA30EF00F0F2B457EF00F055
:100060000EC000F00FC001F010C002F011C003F08C
:100070000CC0E9FF07C0EAFF078E08C0E1FF09C016
:10008000E2FF0AC0D9FF0BC0DAFF12C0F3FF13C0B2
:10009000F4FF14C0FAFF15C0F5FF16C0F6FF17C035
:1000A000F7FF045006C0E0FF05C0D8FF1000010EA6
:1000B0001D26D8B01E2AD8B41F2AD8B4202AF294FC
:1000C00030EF00F0204672657175656E63696D658D
:1000D00074726F200A00467265713A254C55487A51
:1000E000202020202000EA6A300EE96EEF500EE05A
:1000F000010E016E006A002EFED7012EFBD74A0EBC
:10010000006E002EFED700D0EF2EF2D7120037B0CF
:1001100002D08C9801D08C88959837B202D08C9AF6
:1001200001D08C8A959A37B402D08C9C01D08C8CEB
:10013000959C37B602D08C9E01D08C8E959E000087
:100140008D82969200D08D9296921200386A958890
:10015000000E83B8010E3812958A000E83BA010E84
:10016000006ED890003600503812958C000E83BC7B
:10017000010E006E00360036FC0E001600503812DC
:10018000958E000E83BE010E006E003600360036DE
:10019000F80E00160050381238C001F01200958891
:1001A000958A958C958E8D84969400008D8296927A
:1001B0000000CCDF01C037F08D92969200008D8256
:1001C00096920000C3DF01C036F08D92969295980A
:1001D000959A959C959E3738006EF00E001600504B
:1001E0003610016EFAEF00F09692969096948D90EC
:1001F0009690D5D701C036F001BEFBD7345202E14C
:100200008D9001D08D80969000008D949694000082
:100210008D9296923538366E0F0E361636C037F000
:1002200076DF35500F0B366E376E71DF1200280EF9
:10023000246E0C0E256E010E266E060E276E8D9214
:1002400096928D9096908D9496949598959A959C6B
:10025000959E9692969096940F0E306E44DF010E06
:10026000236E2350030808E3030E376E50DF050E9C
:10027000306E39DF232AF5D7020E376E48DF050EC0
:10028000306E31DF236A235003080DE3036A2350E5
:10029000240FE96E000E0320EA6EEFCF35F0346ACA
:1002A000A3DF232AF0D769EF02F0312C01D003D06D
:1002B000400E326E01D0326A010E305C322632506E
:1002C0008009336E346A356E8FDF12002F50070AB3
:1002D00007E00B0A0AE0060A10E0020A14E018D050
:1002E000010E306E316EE1DF18D0346A010E356ECA
:1002F0007BDF020E306EF7DE10D0010E306E020E84
:10030000316ED3DF0AD0346A100E356E6DDF05D042
:10031000010E346E2FC035F067DF12000900F55270
:100320000CE0F6CF23F0F7CF24F0F5CF2FF0CEDF9F
:1003300023C0F6FF24C0F7FFF1D76EEF02F00900EB
:10034000F6CF24F0F7CF25F0F5CF2FF0BFDF24C094
:10035000F6FF25C0F7FF232EF2D71200D8B203D044
:10036000EA6A370EE96E006A016A026A036A376A4E
:10037000386A396A3A6A36503510341033102CE036
:10038000200E3B6ED8902F36303631363236373627
:10039000383639363A3636503A5C08E13550395CF1
:1003A00005E13450385C02E13350375C0FE33350E1
:1003B000375E3450D8A0343C385E3550D8A0353C38
:1003C000395E3650D8A0363C3A5ED88000360136C9
:1003D000023603363B2ED6D737C0EFFF38C0ECFFCE
:1003E00039C0ECFF3AC0ECFF1200E950276E3B0E1B
:1003F0002E6E9A0E2D6ECA0E2C6E2B6A0A0E296E68
:10040000D882EA6A230EE96E26C032F025C031F0A8
:1004100024C030F023C02FF02EC036F02DC035F0B0
:100420002CC034F02BC033F099DF015000520FE1A3
:100430002950010A0CE027500BE00F0B295C01E06A
:100440000CE227BE0AD027BC03D0200E02D0276AB8
:10045000300E002600C02FF039DFD8922EC032F0C7
:100460002DC031F02CC030F02BC02FF0366A356A29
:10047000346A0A0E336E72DF03C02EF002C02DF014
:1004800001C02CF000C02BF0292EBAD7A3EF02F048
:10049000F86AD09E078E600ED36E9B6AD3501C6A9A
:1004A0001B6A1A6A196A206A1F6A1E6A1D6A226A12
:1004B000216AC150C00B0F09C16E070EB46E600EE9
:1004C000D36E9B6AD350A80ED56EF28AC00EF2127C
:1004D000AED6C40EF66E000EF76E20D7D76AD66A77
:1004E0000000206A1F6A1E6A1D6A040E236EFA0E3F
:1004F000306EF9DD232EFBD7D650236E006A016AD9
:1005000000502324196E0150D7201A6E000E1D20B2
:100510001B6E000E1E201C6E010E306E020E316E20
:10052000C4DED60EF66E000EF76E050E236E07DFE4
:10053000410EE96E1CC026F01BC025F01AC024F045
:1005400019C023F052D7DE0EF66E000EF76E070EBE
:08055000236EF5DEC3D70300A2
:020000040030CA
:0E00000000C81E1E008781000FC00FE00F40D9
:00000001FF
;PIC18F4520
;CRC=19EE  CREATED="04-fev-22 20:03"
