:04000000D8EF04F041
:08000800046ED8CF05F0E0CF33
:1000100006F00001E9CF0CF0EACF07F0E1CF08F0DD
:10002000E2CF09F0D9CF0AF0DACF0BF0F3CF12F01C
:10003000F4CF13F0FACF14F0F5CF15F0F6CF16F099
:10004000F7CF17F000C00EF001C00FF002C010F0A3
:1000500003C011F09DA030EF00F09EB063EF00F000
:10006000F2A836EF00F0F2B28EEF00F0F0A83CEF0D
:1000700000F0F0B2C6EF00F00EC000F00FC001F0CB
:1000800010C002F011C003F00CC0E9FF07C0EAFF86
:10009000078E08C0E1FF09C0E2FF0AC0D9FF0BC00C
:1000A000DAFF12C0F3FF13C0F4FF14C0FAFF15C04B
:1000B000F5FF16C0F6FF17C0F7FF045006C0E0FFBB
:1000C00005C0D8FF10001A2AD8B41B2A9E903CEF16
:1000D00000F01AC001F0CE50CFCF03F09D90026E19
:1000E0001A50015C04E0CE50CFCF03F001D0025093
:1000F000006E03C001F01AC002F01BC003F09D8027
:1001000012007450705C006E75507158016E76501C
:100110007258026E77507358036E1200F098D9DF50
:1001200003C037F002C036F001C035F000C034F033
:1001300037C073F036C072F035C071F034C070F063
:100140003BC077F03AC076F039C075F038C074F033
:10015000D8DF03C027F002C026F001C025F000C0A0
:1001600024F037C03BF036C03AF035C039F034C027
:1001700038F0AFDF03C043F002C042F001C041F0ED
:1001800000C040F0F088F2923CEF00F0010E1C2617
:10019000D8B01D2AD8B41E2AD8B41F2A9ADF03C0AB
:1001A00047F002C046F001C045F000C044F047C02F
:1001B00073F046C072F045C071F044C070F04BC09F
:1001C00077F04AC076F049C075F048C074F099DF06
:1001D00003C02BF002C02AF001C029F000C028F0B3
:1001E00047C04BF046C04AF045C049F044C048F013
:1001F000F0923CEF00F00C56656C6F6369646164CB
:100200006520202052504D0A00004F646F6D6574C8
:10021000726F2042617465726961000025332E306F
:10022000666B6D2F682025352E306652504D0A00C2
:1002300025382E33666B6D2025332E31665600002F
:10024000EA6A640EE96EEF500EE0010E016E006A7C
:10025000002EFED7012EFBD74A0E006E002EFED7D1
:1002600000D0EF2EF2D712006BB002D08C9801D0E4
:100270008C8895986BB202D08C9A01D08C8A959A12
:100280006BB402D08C9C01D08C8C959C6BB602D048
:100290008C9E01D08C8E959E00008D82969200D00F
:1002A0008D92969212006C6A9588000E83B8010EAA
:1002B0006C12958A000E83BA010E006ED89000363B
:1002C00000506C12958C000E83BC010E006E00363F
:1002D0000036FC0E001600506C12958E000E83BE88
:1002E000010E006E003600360036F80E0016005083
:1002F0006C126CC001F012009588958A958C958ED1
:100300008D84969400008D8296920000CCDF01C00F
:100310006BF08D92969200008D8296920000C3DF62
:1003200001C06AF08D9296929598959A959C959EAB
:100330006B38006EF00E001600506A10016EA7EFC9
:1003400001F09692969096948D909690D5D701C094
:100350006AF001BEFBD7685202E18D9001D08D801A
:10036000969000008D94969400008D929692693834
:100370006A6E0F0E6A166AC06BF076DF69500F0B5B
:100380006A6E6B6E71DF1200280E576E0C0E586E7F
:10039000010E596E060E5A6E8D9296928D90969021
:1003A0008D9496949598959A959C959E96929690F4
:1003B00096940F0E646E44DF010E566E565003087D
:1003C00008E3030E6B6E50DF050E646E39DF562AAC
:1003D000F5D7020E6B6E48DF050E646E31DF566A8C
:1003E000565003080DE3036A5650570FE96E000E8E
:1003F0000320EA6EEFCF69F0686AA3DF562AF0D7D0
:100400001200652C01D003D0400E666E01D0666AE2
:10041000010E645C662666508009676E686A696EC4
:1004200090DF12006350070A07E00B0A0AE0060A91
:1004300010E0020A14E018D0010E646E656EE1DF70
:1004400018D0686A010E696E7CDF020E646EF8DEF9
:1004500010D0010E646E020E656ED3DF0AD0686A9A
:10046000100E696E6EDF05D0010E686E63C069F014
:1004700068DF12000900F5520CE0F6CF56F0F7CF16
:1004800057F0F5CF63F0CEDF56C0F6FF57C0F7FF49
:10049000F1D712008E0E006E57C001F056C002F068
:1004A000036A015209E102C001F0026A080E005E0F
:1004B000015202E1006A08D0D89001BE04D0023691
:1004C00001360006F9D7019E86EF05F06350D8B4D7
:1004D00071D0006E6750D8B46DD0002604E3810E51
:1004E000002668E204D07F0E005E64E363E064C02F
:1004F0006BF068506B1A648E688E66506A02F4CF97
:100500006DF065506902F4CF03F0F3CF6CF06A022E
:10051000F3506D26F4506C22000E032266506902DF
:10052000F3506D26F4506C22000E026A0322022260
:1005300064506A02F3506C26F4500322000E02222B
:1005400064506902F3500326F4500222000E016A3F
:10055000012266506802F3506C26F4500322000E0C
:100560000222012265506802F3500326F450022251
:10057000000E012264506802F3500226F45001225A
:10058000002A01BE05D06C3603360236013600065D
:10059000000E6CAE0AD0032A02220122015005E1AE
:1005A000025003E1035001E1002A6BBE018E6BAEE5
:1005B000019E04D0006A016A026A036A12005A505E
:1005C000D8B4A5D0666E5E50D8B4A1D0665E05E3FF
:1005D0007F0E6626D8B09BD006D0810E665ED8A06E
:1005E00096D0D8B494D066C000F0016A026A036A5B
:1005F000656A5BC064F0648E5CC063F05DC062F0ED
:10060000190E666E6150625E0DE2010E635E0AE2D3
:10061000645E08E2655E06E2652A642A632A615028
:10062000622628D06050635E12E2010E645E0FE223
:10063000655E0DE2652A642A605063266150622679
:1006400019E3632A17E1642A15E1652A13D05F5084
:100650008009645E0EE2010E655E0BE2652A5F5062
:100660008009642660506326E9E3642AE7E1652A8D
:10067000E5D70380662E01D00BD0D8906236633662
:1006800064366536D8900336023601366736BAD7F7
:1006900067A006D0D890013202320332673202D00E
:1006A000000635E067BE1ED0D890623663366436E9
:1006B00065366150625E07E2010E635E04E2645ECD
:1006C00002E2655E1AE36050635E05E2010E645E5D
:1006D00002E2655E12E35F508009645E03E2010E90
:1006E000655E0BE3032A09E1022A07E1012A05E11D
:1006F000002A0DE00132023203325BC066F05F5027
:10070000661A66AE02D0018E06D0019E04D0006A41
:10071000016A026A036A1200D8B203D0EA6A6B0E59
:10072000E96E006A016A026A036A6B6A6C6A6D6A42
:100730006E6A6A506910681067102CE0200E6F6EA8
:10074000D89063366436653666366B366C366D36F1
:100750006E366A506E5C08E169506D5C05E1685068
:100760006C5C02E167506B5C0FE367506B5E685036
:10077000D8A0683C6C5E6950D8A0693C6D5E6A5038
:10078000D8A06A3C6E5ED880003601360236033649
:100790006F2ED6D76BC0EFFF6CC0ECFF6DC0ECFFC7
:1007A0006EC0ECFF1200B60E006E036A026A016AA8
:1007B000565057105810591002E1006A0DD0D890C9
:1007C00001BE09D0563657365836593603360236EA
:1007D0000136002EF4D7019E12006350B608636EF6
:1007E000036A64C067F0648ED89064326532663202
:1007F0000332023201320032632EF6D767AE0BD0DD
:10080000001E011E021E031E002AD8B4012AD8B4FD
:10081000022AD8B4032A34EF04F0E9505B6E5A5030
:100820005D6E19E059C066F058C065F057C064F0BD
:1008300056C063F06A6A696A200E686E820E676E3F
:1008400045DE03C059F002C058F001C057F000C0A7
:1008500056F05D2EE7D759C066F058C065F057C016
:1008600064F056C063F0B9D703C059F002C058F025
:1008700001C057F000C056F059AE0DD05B065B8A40
:10088000561E571E581E591E562AD8B4572AD8B479
:10089000582AD8B4592A3B0E626E9A0E616ECA0E5F
:1008A000606E5F6A0A0E5D6E5A50D8B45B2AD882B9
:1008B000EA6A560EE96E59C066F058C065F057C036
:1008C00064F056C063F062C06AF061C069F060C055
:1008D00068F05FC067F020DF015000520FE15A2836
:1008E0005D5C0CE05B500CE00F0B5D5C01E037E2FF
:1008F0005BBE35D05BBC04D0200E2DD0200E5B1625
:100900005BAA0CD05B9A5A50D8A45B0600505B6E71
:100910002D0E636E87DD5B50006E5B6A5A505D5C26
:100920000AE100505B6E2E0E636E7CDD5B50006E44
:10093000200E5B16000E300E5BAA0DD05B9A5A504B
:10094000D8A45B0600505B6E2D0E636E6BDD5B50B2
:10095000006E5B6A300E002600C063F063DDD89243
:1009600062C066F061C065F060C064F05FC063F0B3
:100970006A6A696A686A0A0E676ECEDE03C062F050
:1009800002C061F001C060F000C05FF05D2E8FD743
:1009900012000900F6CF57F0F7CF58F0F5CF63F00B
:1009A00041DD57C0F6FF58C0F7FF562EF2D71200B0
:1009B000F86AD09E078E600ED36E9B6AD3501B6A76
:1009C0001A6ACD90850ECD6ECF6ACE6A00009E90D9
:1009D0009D801F6A1E6A1D6A1C6A236A226A216A38
:1009E000206A276A266A256A246A2B6A2A6A296A83
:1009F000286A2F6A2E6A2D6A2C6A336A326A316A33
:100A0000306A376A366A356A346A3B6A3A6A396AE2
:100A1000386A476A466A456A446A4B6A4A6A496A5A
:100A2000486A4D6A4C6AC150C00B0F09C16E070E6F
:100A3000B46EC050C00B0709C06EC08EC280C150DA
:100A4000C00B0E09C16E000E016EC250C30B011027
:100A5000C26EF288F088C00EF21296DCF60EF66EC8
:100A6000010EF76E07DD0A0EF66E020EF76E02DD5E
:100A7000060E566EFA0E646E20EC01F0562EFAD772
:100A800083DCF2CF56F0F29E030EA96EA69CA69EC2
:100A9000A680A85056BEF28E576EF2CF58F0F29E46
:100AA000020EA96EA69CA69EA680A85058BEF28EE5
:100AB000596EF2CF5AF0F29E010EA96EA69CA69E28
:100AC000A680A8505ABEF28E5B6EF2CF5CF0F29E0A
:100AD000A96AA69CA69EA680A8505CBEF28E5D6EFA
:100AE00057C01FF059C01EF05BC01DF05DC01CF068
:100AF000C282C2B2FED7C4CF02F0C3CF01F0C4CFCE
:100B000003F0C3CF56F0C4CF57F0C4D403C051F0A4
:100B100002C050F001C04FF000C04EF0210E006E38
:100B2000002EFED751C066F050C065F04FC064F093
:100B30004EC063F06A6A696A700E686E820E676EF4
:100B4000C5DC03C059F002C058F001C057F000C026
:100B500056F003C05DF002C05CF001C05BF000C065
:100B60005AF0616A606A5F6A890E5E6E28DD03C0B2
:100B700055F002C054F001C053F000C052F0D892BA
:100B8000030E666E930E656E870E646E636A27C0F1
:100B90006AF026C069F025C068F024C067F0BCDDAB
:100BA00003C059F002C058F001C057F000C056F021
:100BB000FADD03C02FF002C02EF001C02DF000C0FE
:100BC0002CF069EC00F003C03FF002C03EF001C021
:100BD0003DF000C03CF0196AF2BE198EF29E3FC093
:100BE00073F03EC072F03DC071F03CC070F043C085
:100BF00077F042C076F041C075F040C074F081ECEF
:100C000000F019BEF28E03C059F002C058F001C0C6
:100C100057F000C056F059520DE158500E080EE240
:100C2000FF0A08E15750410809E2FF0A03E1565064
:100C3000400804E22F6A2E6A2D6A2C6AD892666AEE
:100C4000360E656EEE0E646E800E636E2BC06AF01B
:100C50002AC069F029C068F028C067F05DDD03C0D4
:100C600059F002C058F001C057F000C056F09BDDAB
:100C700003C033F002C032F001C031F000C030F0E8
:100C8000948082B067D01F6A1E6A1D6A1C6AF25087
:100C9000006EF29EA96A1CC0A8FFA69CA69EA68410
:100CA0000F01550EA76EAA0EA76EA682A6B2FED79A
:100CB000A6940050F2121DC057F01EC058F01FC07D
:100CC00059F05A6AF2CF00F0F29E010EA96E1DC0D3
:100CD000A8FFA69CA69EA684550EA76EAA0EA76E78
:100CE000A682A6B2FED7A6940050F2121EC057F0FC
:100CF0001FC058F0596A5A6AF2CF00F0F29E020EF5
:100D0000A96E1EC0A8FFA69CA69EA684550EA76E1F
:100D1000AA0EA76EA682A6B2FED7A6940050F21223
:100D20001FC057F0586A596A5A6AF2CF00F0F29E13
:100D3000030EA96E1FC0A8FFA69CA69EA684550EF2
:100D4000A76EAA0EA76EA682A6B2FED7A6940050E2
:100D5000F2120001F250006EF29EA96A1CC0A8FFB8
:100D6000A69CA69EA6840F01550EA76EAA0EA76E7E
:100D7000A682A6B2FED7A6940050F2121DC057F06C
:100D80001EC058F01FC059F05A6AF2CF00F0F29E10
:100D9000010EA96E1DC0A8FFA69CA69EA684550E96
:100DA000A76EAA0EA76EA682A6B2FED7A694005082
:100DB000F2121EC057F01FC058F0596A5A6AF2CF9B
:100DC00000F0F29E020EA96E1EC0A8FFA69CA69E71
:100DD000A684550EA76EAA0EA76EA682A6B2FED74F
:100DE000A6940050F2121FC057F0586A596A5A6A06
:100DF000F2CF00F0F29E030EA96E1FC0A8FFA69CC2
:100E0000A69EA684550EA76EAA0EA76EA682A6B2AF
:100E1000FED7A6940050F2121FC059F01EC058F021
:100E20001DC057F01CC056F00001BDDC03C059F0D6
:100E300002C058F001C057F000C056F003C05DF08A
:100E400002C05CF001C05BF000C05AF0616A606AE9
:100E50007A0E5F6E880E5E6EDFEC02F003C023F048
:100E600002C022F001C021F000C020F0010E646E2B
:100E7000656E01EC02F0020EE96E33C059F032C02B
:100E800058F031C057F030C056F05A6AC6DC210E17
:100E9000F66E020EF76E050E566E7BDD040EE96EE1
:100EA0002FC059F02EC058F02DC057F02CC056F06E
:100EB0005A6AB3DC2B0EF66E020EF76E040E566EF7
:100EC00068DD070EE96E23C059F022C058F021C03A
:100ED00057F020C056F0030E5A6E9FDC350EF66EAA
:100EE000020EF76E030E566E54DD020EE96E55C00B
:100EF00059F054C058F053C057F052C056F0010E8C
:100F00005A6E8BDC560E636E12EC02F0640E646E49
:080F100020EC01F0EDD5030017
:020000040030CA
:0E00000000C81E1E008781000FC00FE00F40D9
:00000001FF
;PIC18F4520
;CRC=C48D  CREATED="04-jun-23 20:04"
