:04000000F1EF01F02B
:08000800046ED8CF05F0E0CF33
:1000100006F00001E9CF0CF0EACF07F0E1CF08F0DD
:10002000E2CF09F0D9CF0AF0DACF0BF0F3CF12F01C
:10003000F4CF13F0FACF14F0F5CF15F0F6CF16F099
:10004000F7CF17F000C00EF001C00FF002C010F0A3
:1000500003C011F09DA030EF00F09EB057EF00F00C
:100060000EC000F00FC001F010C002F011C003F08C
:100070000CC0E9FF07C0EAFF078E08C0E1FF09C016
:10008000E2FF0AC0D9FF0BC0DAFF12C0F3FF13C0B2
:10009000F4FF14C0FAFF15C0F5FF16C0F6FF17C035
:1000A000F7FF045006C0E0FF05C0D8FF1000000EA7
:1000B000D8801954006E000E1A54036E00C001F06F
:1000C000035209E10150390806E3F80ECF6E310EF4
:1000D000CE6E000022D0000ED8801B54006E000EA1
:1000E0001C54036E00C001F0035209E101503908AD
:1000F00006E3F80ECF6E310ECE6E000012D01D500A
:1001000006E01CC0CFFF1BC0CEFF000006D01AC007
:10011000CFFF19C0CEFF000004D094968B961D6AC5
:1001200009D01EA003D094968B8602D094968B960D
:10013000010E1D6E9E9030EF00F021502302F3CF90
:1001400001F0F4CF00F02402F350002622502302E5
:10015000F3500020026E1200316A326A010E336ED3
:10016000DA6AD96A366A290E356EEA6A2D0EE96EA8
:1001700036C0E2FF35C0E1FF33C034F0D890E5501F
:10018000EE02F3503122F4503222342EF7D731C030
:10019000DEFF32C031F0326AD8B0322A352AD8B404
:1001A000362A332A33500508E0E11200D8B203D0D2
:1001B000EA6A310EE96E006A016A026A036A316A0C
:1001C000326A336A346A30502F102E102D102CE012
:1001D000200E356ED89029362A362B362C363136FD
:1001E0003236333634363050345C08E12F50335CCD
:1001F00005E12E50325C02E12D50315C0FE32D50B1
:10020000315E2E50D8A02E3C325E2F50D8A02F3C0D
:10021000335E3050D8A0303C345ED8800036013692
:1002200002360336352ED6D731C0EFFF32C0ECFF91
:1002300033C0ECFF34C0ECFF1200CBCF25F0266AB0
:10024000252AD8B4262AD8902536263625362636AD
:100250002C6A2B6A26C02AF025C029F0306A2F6A42
:1002600024C02EF023C02DF077DFD89203C02CF0ED
:1002700002C02BF001C02AF000C029F0306A2F6ABA
:10028000030E2E6EE80E2D6E91DF0150030803E27F
:10029000030E016E006800C002F00132003201322C
:1002A000003200C0BEFF0236023602360236CF0EE2
:1002B000BD16300E0214BD123EEF02F0EA6A220EA5
:1002C000E96EEF5011E0020E016EBF0E006E0400E9
:1002D000002EFDD7012EF9D7960E006E002EFED708
:1002E00000D00400EF2EEFD712002C6A2B6A24C036
:1002F0002AF023C029F0306A2F6A070E2E6ED00E26
:100300002D6E2ADFD89203C02CF002C02BF001C062
:100310002AF000C029F0306A2F6A030E2E6EE80E14
:100320002D6E44DF035203E10250000802E201682F
:100330000068015206E10050570803E3036A000E0B
:100340000ED001C003F00050A80F006E000E035A3B
:100350000050FF0A010F006E000E03560050196E88
:1003600003C01AF0E80ED8802354006E030E245404
:10037000016E2C6A2B6A070E2A6ED00E296E306A27
:100380002F6A01C02EF000C02DF0E6DED89203C027
:100390002CF002C02BF001C02AF000C029F0306A16
:1003A0002F6A030E2E6EE80E2D6E00DF015206E15D
:1003B0000050570803E3036A000E0ED001C003F09B
:1003C0000050A80F006E000E035A0050FF0A010FE4
:1003D000006E000E035600501B6E03C01CF06CEF45
:1003E00002F0F86AD09E078E700ED36E9B6AD350CF
:1003F0007C0ECB6E060ECA6E9494B76AB66A3E0E39
:10040000BE6E2C0EBD6EFC0E1A6E700E196EFC0EBA
:100410001C6E700E1B6E1D6A1E68CD6A850ECD6E39
:10042000070ECF6ECF0ECE6E00009D80C00EF21272
:10043000C150C00B0F09C16E070EB46EC150C00B86
:100440000F09C16E1E900C0EBD12206A010E1F6EA8
:1004500020521FE11F5009081CE320C022F01FC0DA
:1004600021F0246A640E236E68DE02C022F001C00F
:1004700021F002C024F001C023F0DFD6020E216E6D
:10048000FA0E226E1BDF212EFBD71F2AD8B4202A9A
:10049000DFD7F00EBD16020E216EFA0E226E0EDFB1
:1004A000212EFBD71E80206A010E1F6E20521FE1F5
:1004B0001F5009081CE320C022F01FC021F0246A4D
:1004C000640E236E3ADE02C022F001C021F002C0A9
:1004D00024F001C023F009D7020E216EFA0E226E1D
:1004E000EDDE212EFBD71F2AD8B4202ADFD71E909D
:0404F000A9D7030085
:020000040030CA
:0E00000000C81E1E008781000FC00FE00F40D9
:00000001FF
;PIC18F4520
;CRC=6FF2  CREATED="07-out-21 17:01"
