:10000000D1EF00F0EA6A0C0EE96EEF50D8B40FEFB2
:1000100000F0520E006E002EFED7EF2EFAD712001F
:100020000B500D02F3CF01F0F4CF00F00E02F350AD
:1000300000260C500D02F3500020026E12000A6AD6
:10004000096A08C00CF007C00BF00E6A04C00DF07E
:10005000E7DF02C003F00A50025C48E303E101500D
:10006000095C44E295908C8006C00BF00B2A0B06CD
:10007000D8B403D00C68C6DFFAD705C00CF0C2DFD5
:1000800095908C9095928C8206C00BF00B2A0B06F3
:10009000D8B403D00C68B6DFFAD705C00CF0B2DFD5
:1000A00095928C9295948C8406C00BF00B2A0B06CB
:1000B000D8B403D00C68A6DFFAD705C00CF0A2DFD5
:1000C00095948C9495968C8606C00BF00B2A0B06A3
:1000D000D8B403D00C6896DFFAD705C00CF092DFD5
:1000E00095968C96092AD8B40A2AABD7F5EF00F07A
:1000F0000A6A096A08C00CF007C00BF00E6A04C057
:100100000DF08EDF02C003F00A50025C48E303E109
:100110000150095C44E295968C8606C00BF00B2AD0
:100120000B06D8B403D00C686DDFFAD705C00CF00D
:1001300069DF95968C9695948C8406C00BF00B2AFB
:100140000B06D8B403D00C685DDFFAD705C00CF0FD
:1001500059DF95948C9495928C8206C00BF00B2AF3
:100160000B06D8B403D00C684DDFFAD705C00CF0ED
:1001700049DF95928C9295908C8006C00BF00B2AEB
:100180000B06D8B403D00C683DDFFAD705C00CF0DD
:1001900039DF95908C90092AD8B40A2AABD703EF9F
:1001A00001F0F86AD09E400ED36E9B6AD350C150C6
:1001B000C00B0F09C16E070EB46E100E046E959041
:1001C0008C9095928C9295948C9495968C96040E26
:1001D000056EFA0E0C6E16DF052EFBD7066A320E80
:1001E000056E086A010E076E2AD7040E056EFA0E18
:1001F0000C6E08DF052EFBD7066A320E056E086A04
:10020000010E076E75D7040E056EFA0E0C6EFADE3F
:08021000052EFBD7E3D7030024
:020000040030CA
:0E00000000C81E1E000781000FC00FE00F4059
:00000001FF
;PIC18F4520
;CRC=4E50  CREATED="08-dez-22 17:17"
